:020000040040BA
:1000000020ED0020E96C4000396C4000396C400064
:10001000396C4000396C4000396C40000000000031
:10002000000000000000000000000000010F41007F
:10003000396C400000000000F1104100391141000E
:10004000396C4000396C4000396C4000396C40001C
:10005000396C4000396C4000396C4000396C40000C
:10006000396C400099404000B1404000C940400018
:10007000E1404000F9404000396C4000396C4000DC
:10008000396C4000396C4000396C4000396C4000DC
:10009000396C4000396C4000396C4000396C4000CC
:1000A000396C4000396C4000396C4000396C4000BC
:1000B000396C4000396C4000396C4000396C4000AC
:1000C000396C4000396C4000396C4000C549400033
:1000D000396C4000396C4000396C4000396C40008C
:1000E000396C4000396C4000396C4000396C40007C
:1000F000E1004100396C400010B5054C237833B95C
:10010000044B13B10448AFF300800123237010BDEA
:10011000280B002000000000A4EC41000C4B43B170
:100120000C480D4910B5AFF300800C48036823B9A3
:1001300010BD0A48036833B97047094B002BF7D04C
:10014000BDE810401847064B002BF5D0184700BFFC
:1001500000000000A4EC41002C0B002000E204632E
:100160000000000080B483B000AF78607B68072B8C
:1001700025D801A252F823F0990140009F014000C8
:10018000A5014000AB014000AF014000B3014000B9
:10019000B7014000BB0140004FF4FA4310E04FF4B8
:1001A00000430DE04FF400430AE0084B08E0084B21
:1001B00006E0084B04E0074B02E0064B00E000239A
:1001C00018460C37BD465DF8047B704700093D00BA
:1001D00000127A00001BB70080B500AF0620034B69
:1001E000984703461B01184680BD00BF65014000CB
:1001F00080B500AF024B984703465B08184680BDA8
:10020000D901400080B483B000AF78607B68802261
:100210001A6000BF0C37BD465DF8047B704780B4A0
:1002200083B000AF78607B684FF080721A6000BFC7
:100230000C37BD465DF8047B704780B483B000AFD7
:1002400078607B685B6843F001027B685A6000BF9E
:100250000C37BD465DF8047B704780B483B000AFB7
:1002600078607B685B6823F002027B685A6000BF9D
:100270000C37BD465DF8047B704780B483B000AF97
:1002800078607B685B6823F004027B685A6000BF7B
:100290000C37BD465DF8047B704780B483B000AF77
:1002A00078607B685B6803F00403002B01D00123B6
:1002B00000E0002318460C37BD465DF8047B70470C
:1002C00080B483B000AF78607B685B6843F0100255
:1002D0007B685A6000BF0C37BD465DF8047B7047F1
:1002E00080B483B000AF78607B685B6823F08002E5
:1002F0007B685A6000BF0C37BD465DF8047B7047D1
:1003000080B483B000AF78600B467B807A887B68CE
:10031000DA6000BF0C37BD465DF8047B704780B4DF
:1003200083B000AF78607B689B689BB218460C373F
:10033000BD465DF8047B704780B483B000AF786041
:100340007B681B6903F40073002B01D0012300E0DC
:10035000002318460C37BD465DF8047B704780B417
:1003600083B000AF78607B681B6903F00203002B49
:1003700001D0012300E0002318460C37BD465DF88C
:10038000047B704780B483B000AF78607B681A69E3
:1003900040F20123134040F20122934201D1012394
:1003A00000E0002318460C37BD465DF8047B70471B
:1003B00080B582B000AF78600B46FB70FB789BB2D3
:1003C00019467868024B984700BF0837BD4680BD84
:1003D0000103400080B582B000AF78603960786872
:1003E000044B98470346DAB23B681A7000BF0837DF
:1003F000BD4680BD1F03400080B582B000AF78606D
:100400007868104B984778680F4B984778680F4B7F
:10041000984778680E4B984778680E4B98470021AC
:1004200078680D4B984778680C4B984778680C4B68
:100430009847002178680B4B984700BF0837BD46A6
:1004400080BD00BF91444000050240003B024000D7
:10045000C1024000E1024000AD4440005B024000A8
:100460007B024000E144400090B587B000AFF860E7
:10047000B9603B601346FB71204B98470346194611
:1004800038681F4B98470346FB82BB6819680023F6
:100490000022F8681B4CA047BB681B68082219465D
:1004A000F868194B9847BB681B68FA8AD2B219469C
:1004B000F868164B9847BB681B6808221946F8680D
:1004C000134B9847BB681968FB795B08DBB21A4687
:1004D000F868104B9847BB681968FB7903F0010373
:1004E000002B0CBF01230023DBB21A46F8680A4B2D
:1004F000984700BF1C37BD4690BD00BFF1014000CA
:10050000A14640003B47400057464000DD464000C2
:10051000B1454000114540006145400080B582B0C2
:1005200000AF786039607868104B98470346002B1D
:100530000AD03B681B680F2B14D83B681B68194610
:1005400078680B4B98470DE03B681B68032B09D874
:100550003B681B68012202FA03F3DB431946786803
:10056000034B984700BF0837BD4680BD9B02400043
:10057000AD44400080B582B000AF7860396000BF04
:100580007868084B98470346002BF9D00F2178680C
:10059000054B98477868054B984700BF0837BD461C
:1005A00080BD00BF39034000AD4440001F02400041
:1005B00080B588B000AFF860B9607A6043F69823E0
:1005C000FB610023BB6121E043F69823FB6107E058
:1005D000FB695A1EFA61002B02D16FF0020319E089
:1005E000F8680E4B98470346002BF1D0BA68BB69F8
:1005F00013441B78FB75FB7D1946F868084B984738
:10060000BB690133BB617B68013B7B607B68002B6E
:10061000DAD1002318462037BD4680BD5F03400075
:10062000B103400080B588B000AFF860B9607A606F
:1006300043F69823FB610023BB6138E043F698231F
:10064000FB6107E0FB695A1EFA61002B02D16FF0D3
:10065000020330E0F8681A4B98470346002BF1D0AC
:100660008021F868174B984743F69823FB6107E011
:10067000FB695A1EFA61002B02D16FF002031AE0E7
:10068000F868114B98470346002BF1D007F1170388
:100690001946F8680D4B9847BA68BB691344FA7D50
:1006A0001A70BB690133BB617B68013B7B607B686F
:1006B000002BC3D1002318462037BD4680BD00BFA4
:1006C0005F034000B103400085034000D5034000B4
:1006D00080B48BB000AF78600B46FB707B687B62A8
:1006E000FB7887F823307B6AFB61FB69BB61BB69E0
:1006F0005B097B617B6903F5001303F207735B02FF
:100700003B6197F82330002B09D07B6AFB60FB68C4
:1007100003F01F0301229A403B691A6308E07B6AD9
:10072000BB60BB6803F01F0301229A403B695A6318
:1007300000BF2C37BD465DF8047B704780B500AF25
:1007400000217620014B984700BF80BDD1064000B4
:1007500080B400AF00BFBD465DF8047B704780B435
:1007600000AF00BFBD465DF8047B704780B483B026
:1007700000AF0346FB8000BF0C37BD465DF8047B2D
:100780007047000080B400AF054B1B78002B01D0F0
:10079000022300E000231846BD465DF8047B704745
:1007A000446B002080B483B000AF7860074B1B78A7
:1007B000002B01D0022303E07B682F221A60002364
:1007C00018460C37BD465DF8047B7047446B00202B
:1007D00080B400AF00231846BD465DF8047B704727
:1007E00080B400AF01231846BD465DF8047B704716
:1007F00080B483B000AF0346FB71054AFB791370E8
:10080000012318460C37BD465DF8047B704700BFD6
:10081000446B002090B585B000AF78600B467B80BC
:1008200013467B707B68302B04D87A887B6813442E
:10083000302B25D9012327E07B887F2B02D87B88AA
:10084000DBB200E08023FB737B685A1C7A605B029A
:100850000F4A1344BB60FB7B5B021A467878002387
:10086000B9680C4CA047034683F00103DBB2002BB0
:1008700001D0012308E0FB7B9BB27A88D31A7B80EE
:100880007B88002BD8D1002318461437BD4690BD75
:10089000440B0020011C400080B582B000AF78609E
:1008A0000B467B807B88012219467868034B98476A
:1008B000034618460837BD4680BD00BF15084000F6
:1008C00080B582B000AF78600B467B807B880022C9
:1008D00019467868034B9847034618460837BD46C3
:1008E00080BD00BF1508400080B582B000AF7860C1
:1008F0007B68072B31D801A252F823F05909400038
:100900001D094000250940002D094000350940001F
:100910003D094000450940004F0940000020114BAF
:1009200098471AE001200F4B984716E000200E4B25
:10093000984712E010200C4B98470EE020200A4BFD
:1009400098470AE03E210020084B984705E03E21E9
:100950000120064B984700E000BF00BF0837BD46A6
:1009600080BD00BF954140000142400071424000FF
:1009700080B582B000AF78607B68072B26D801A2D3
:1009800052F823F0A5094000A9094000A909400038
:10099000BB094000BB094000BB094000BB09400047
:1009A000BB094000012312E00B4B98470346002B84
:1009B00014BF01230023DBB209E0084B984703462C
:1009C000002B14BF01230023DBB200E000231846F4
:1009D0000837BD4680BD00BFCD414000E942400020
:1009E00080B483B000AF78607B68072B25D801A264
:1009F00052F823F0150A40001B0A4000210A40006B
:100A0000270A40002B0A40002F0A4000330A40000A
:100A1000370A40004FF4FA4310E04FF400430DE072
:100A20004FF400430AE0084B08E0084B06E0084B8F
:100A300004E0074B02E0064B00E0002318460C37A9
:100A4000BD465DF8047B704700093D0000127A0046
:100A5000001BB70080B582B000AF0346FB7100BF3A
:100A6000FB791846054B9847034683F00103DBB238
:100A7000002BF5D100BF0837BD4680BD710940008D
:100A800080B586B000AFF8607A603B600B46FB72C1
:100A9000FB7A18460D4B984702467B68B2FBF3F38E
:100AA0007B617B693A6802FB03F37B613B68013B36
:100AB0001A04074B13407A68D2B2134343F47C52B2
:100AC000FB681A6000BF1837BD4680BDE1094000D1
:100AD0000000FF0780B582B000AF786039603B68E6
:100AE000002B07D1054B9847054A7B681B6843F0EC
:100AF0000053936200BF0837BD4680BD05434000E8
:100B000000040E4080B582B000AF7860034B984778
:100B1000034618460837BD4680BD00BF214340004C
:100B200080B582B000AF0346FB71FB79033B042B19
:100B300008D8FB791846064B9847FB791846054BB1
:100B4000984700E000BF00BF0837BD4680BD00BF2A
:100B5000E9084000550A400080B582B000AF7860D7
:100B600000BF7868044B98470346002BF9D0002358
:100B700018460837BD4680BD050B400080B500AF64
:100B80000620034B984703461B01184680BD00BF53
:100B9000E109400080B500AF024B984703465B086F
:100BA000184680BD7D0B400090B583B000AF114862
:100BB000114B98470620114B9847381D10230122EE
:100BC00006210F4CA0473B1D002118460D4B9847AE
:100BD00000200D4B984710200C4B98470C4B984722
:100BE0000C4B984703461846034B984700BF0C37F9
:100BF000BD4690BD000E2707016F4000210B40004D
:100C0000810A4000D50A4000590B400011414000C4
:100C1000996D4000950B400098B500AF0F4B1B68D5
:100C2000002B18D10322002101200D4B98470246CA
:100C30000A4B1A60094B1B68002B06D0074B18683B
:100C4000002300220021074CA047044B1B68002B07
:100C500001D1002300E00123184698BD486B002015
:100C6000111741003118410080B500AF094B1B68D6
:100C7000002B01D100230BE000BF064B1B684FF097
:100C8000FF311846044B98470346002BF5D001234B
:100C9000184680BD486B0020B11D410080B400AFF4
:100CA00001231846BD465DF8047B704790B585B0BA
:100CB00000AF0346FB71114B9847034683F00103D5
:100CC000DBB2002B01D0012314E0FB79002B07D10C
:100CD000FB790B4A5B0113441B689847034600E00D
:100CE0000123FB73074B1868002300220021064CE8
:100CF000A047FB7B18461437BD4690BD690C4000E9
:100D0000FCC84100486B00203118410090B585B007
:100D100000AF03463960FB71124B9847034683F0DE
:100D20000103DBB2002B01D0012316E0FB79002B7D
:100D300009D1FB790C4A5B01134404331B68386802
:100D40009847034600E00123FB73084B1868002313
:100D500000220021064CA047FB7B18461437BD46F5
:100D600090BD00BF690C4000FCC84100486B0020EA
:100D70003118410090B585B000AF03460A46FB71BB
:100D80001346BB711F4B9847034683F00103DBB248
:100D9000002B01D0002331E0FB79002B24D1FB791B
:100DA000194A5B01134408331B68002B0FD0FB79F1
:100DB000154A5B01134408331B68BA7910469847FB
:100DC0000346002B14BF01230023DBB20DE0BB79E7
:100DD000002B14BF01230023DBB283F00103DBB23D
:100DE00003F00103DBB200E00023FB73074B18683C
:100DF000002300220021064CA047FB7B1846143735
:100E0000BD4690BD690C4000FCC84100486B002005
:100E10003118410090B585B000AF0346FB71134B0C
:100E20009847034683F00103DBB2002B01D0012376
:100E300018E0FB79002B09D1FB790D4A5B011344C3
:100E40000C331B6898470346002B01D0012300E0B8
:100E50000023FB73074B1868002300220021064C77
:100E6000A047FB7B18461437BD4690BD690C400077
:100E7000FCC84100486B00203118410090B585B096
:100E800000AF0346FB71134B9847034683F0010301
:100E9000DBB2002B01D0012318E0FB79002B09D134
:100EA000FB790D4A5B01134410331B6898470346D6
:100EB000002B01D0012300E00023FB73074B1868CF
:100EC000002300220021064CA047FB7B1846143764
:100ED000BD4690BD690C4000FCC84100486B002035
:100EE0003118410080B483B000AF0346FB71FB7939
:100EF000002B01D1044B00E0002318460C37BD46FF
:100F00005DF8047B704700BFE0C8410080B582B047
:100F100000AF1F4B00221A701E4B00221A701E4B8E
:100F200001221A701D4B01221A701D4B984703466F
:100F30001A461C4B1A701B4B1B78002B01D1002347
:100F400022E0184B1B78013BDAB2164B1A70164B95
:100F50009847034683F00103DBB2002B01D0002346
:100F600012E00023FB7107E0FB79002118460F4BCC
:100F70009847FB790133FB710A4B1B78FA799A4247
:100F8000F2D90B4B9847012318460837BD4680BD60
:100F9000836B0020826B00202100002022000020B3
:100FA0009D0C40006C6B002015634100750D4000E6
:100FB0002511400080B500AF064B00221A70064B89
:100FC00001221A70054B01221A70054B984700BF89
:100FD00080BD00BF836B0020210000202200002084
:100FE0003163410080B500AF284B1B785BB2002B0A
:100FF0001DDA264B1B7803F06003202B17D1234BFF
:101000005B78FE2B13D1214BDB88012B01D0002311
:1010100039E01E4B5B88002B01D0002333E01B4BD3
:101020001B4A9A60194B01229A8101232BE0174B2E
:101030001B785BB2002B25DB144B1B7803F060039D
:10104000202B1FD1114B5B78FF2B1BD10F4BDB8863
:10105000002B01D0002316E00C4B5B88002B01D045
:10106000002310E00B4B00221A700B4B00221A7069
:1010700002200A4B98478120084B9847084B984715
:10108000012300E00023184680BD00BF98B5002072
:101090006C6B0020826B0020836B0020CD524000DF
:1010A0002511400080B400AF00231846BD465DF80E
:1010B000047B704780B500AF084B1B7883F00103B9
:1010C000DBB2002B07D10220054B984705490220CF
:1010D000054B984700E000BF80BD00BF826B002039
:1010E000554F4000B5104000E954400080B500AFB6
:1010F000084B1B7883F00103DBB2002B07D1812062
:10110000054B984705498120054B984700E000BFF3
:1011100080BD00BF826B0020554F4000ED104000A5
:10112000E954400090B583B002AF0B4B00931F23EE
:101130000A4A012102200A4CA047034683F001031A
:10114000DBB2002B03D007490220074B984700BFB2
:101150000437BD4690BD00BF6D1140004C6B0020B0
:101160007551400025114000E954400080B582B01F
:1011700000AF03463960FB711346BB71FB79002B4E
:1011800040F011813B681F2B04D1894B1B68894AB1
:10119000934207D0884B01221A70884B9847884B9E
:1011A000984701E1824B5B7B03F00F03DAB2804B7F
:1011B0005A737F4B5A7B834B1B789A4204D9824BDC
:1011C0009847824B9847EFE0794B9B68804A936041
:1011D000774BDB7B5A2B00F2E08001A252F823F020
:1011E000691340009B1340009B1340004D134000C7
:1011F0009B1340009B1340009B1340009B13400037
:101200009B1340009B1340009B1340009B13400026
:101210009B1340009B1340009B1340009B13400016
:101220009B1340009B134000531340009B1340004E
:101230009B1340009B1340009B1340009B134000F6
:101240009B1340009B13400059134000751340004E
:101250009B1340009B1340007B1340009B134000F6
:101260009B1340009B1340009B1340009B134000C6
:101270009B1340006F1340009B1340009B134000E2
:101280008B1340009B134000931340009B134000BE
:101290009B1340009B1340009B13400081134000B0
:1012A0009B1340009B1340009B1340009B13400086
:1012B0009B1340009B1340009B1340009B13400076
:1012C0009B1340009B1340009B1340009B13400066
:1012D0009B1340009B1340009B1340009B13400056
:1012E0009B1340009B1340009B1340009B13400046
:1012F0009B1340009B1340009B1340009B13400036
:101300009B1340009B1340009B1340009B13400025
:101310009B1340009B1340009B1340009B13400015
:101320009B1340009B1340009B1340009B13400005
:101330009B1340009B1340009B1340009B134000F5
:101340009B1340009B13400061134000214B9847C2
:101350002AE0214B984727E00020204B984723E0C4
:1013600001201E4B98471FE01D4B98471CE01D4B6A
:10137000984719E01C4B984716E01C4B984713E020
:101380001B4B9847114B98470EE00120194B98478B
:101390000AE00020174B984706E0174B98470B4B85
:1013A000984700BF00E000BF0837BD4680BD00BFC2
:1013B0004C6B002055534243826B0020B510400017
:1013C000ED1040006C6B00209D164000D5144000CD
:1013D00014000020CD1640001D1740008D1840005D
:1013E00065184000511A4000DD194000A519400061
:1013F00021164000E91A4000B516400080B582B0C1
:1014000000AF78600B46FB700B4B1A7BFB785340A8
:10141000DBB25BB2002B04DB084B9A687B689A4214
:1014200005D2074B9847074B9847002300E001235C
:1014300018460837BD4680BD4C6B002014000020C4
:101440009D164000D514400090B585B002AF78607D
:101450000B46FB70FA780B4B009313467A68012118
:101460008120094CA047034683F00103DBB2002B27
:1014700003D0064B9847064B984700BF0C37BD4634
:1014800090BD00BF95144000755140006D1640009E
:10149000D514400080B582B000AF03463960FB71BF
:1014A0001346BB71FB79002B0AD1074B9847074BBA
:1014B0009A683B68D31A054A9360054B984700E049
:1014C00000BF0837BD4680BD211640001400002033
:1014D000D514400080B500AF0D4B9B68002B0BD09E
:1014E0000C4B1B7B5BB2002B03DA81200A4B984725
:1014F00002E00220084B9847064B5B68044A5360A1
:10150000034B9B68024A9360044B984700BF80BD21
:10151000140000204C6B0020554F40002115400066
:1015200090B583B002AF0B4B00930D230A4A002104
:1015300081200A4CA047034683F00103DBB2002B55
:1015400003D007498120074B984700BF0437BD46A9
:1015500090BD00BF69154000140000207551400087
:1015600021154000E954400080B582B000AF034629
:101570003960FB711346BB71024B984700BF0837B7
:10158000BD4680BD2511400080B500AF122200216C
:101590000548064B9847044BF0221A70024B0A226A
:1015A000DA7100BF80BD00BF706B0020016F410089
:1015B00080B582B000AF03463A60FB710B46BB803A
:1015C000144B9847144B01221A73144AFB799370F9
:1015D0003B681B0EDAB2114BDA703B681B0CDAB2B7
:1015E0000E4B1A713B681B0ADAB20C4B5A713B68FE
:1015F000DAB20A4B9A71BB881B0A9BB2DAB2074B6C
:101600001A73BB88DAB2054B5A7300BF0837BD4660
:1016100080BD00BF8915400014000020706B0020C1
:1016200080B500AF034B9847034B00221A7300BFED
:1016300080BD00BF891540001400002080B500AFB8
:1016400000224FF468510220014B984700BF80BD33
:10165000B115400080B500AF00224FF420510620A4
:10166000014B984700BF80BDB115400080B500AF69
:10167000002200210420024B984700BF80BD00BF1C
:10168000B115400080B500AF00224FF41C51072077
:10169000014B984700BF80BDB115400080B500AF39
:1016A00000224FF410510520014B984700BF80BD28
:1016B000B115400080B500AF00224FF40051052065
:1016C000014B984700BF80BDB115400080B582B086
:1016D00000AF0E4BDB7CFB71FB79122B01D912237F
:1016E000FB71FB7980211846094B9847034683F02C
:1016F0000103DBB2002B05D1FB7919460548064BE7
:10170000984700E000BF0837BD4680BD4C6B002005
:10171000FD134000706B00204914400090B583B069
:1017200000AF354BDB7CFB71FB79242B01D92423E3
:10173000FB71FB7980211846304B9847034683F0B4
:101740000103DBB2002B52D12B4B1B7C03F00303B4
:10175000002B03D1284B5B7C002B04D0284B9847EF
:10176000284B984744E0244B5B7B1846264B984710
:101770000346002B01D0802200E00022234B5A7048
:101780001D4B5B7B1846224B984703465A1C1F4B48
:1017900003F110041346186859689A68DB680FC48F
:1017A0000023BB710EE0BB79184A13441B7C002B4D
:1017B00014D0BB79154A13441B7C222B0ED0BB7965
:1017C0000133BB71BB79102BEDD107E0BB790F4A18
:1017D000134420221A74BB790133BB71BB79102BDF
:1017E000F4D1FB79194609480A4B984700E000BF3D
:1017F0000C37BD4690BD00BF4C6B0020FD13400070
:101800009D164000D51440007D0E400024000020AD
:10181000E50E40004914400080B500AF0C4B5B7BE7
:1018200018460C4B98470346022B08D0032B03D0D5
:10183000002B07D1012309E0074B984705E0074B30
:10184000984702E0064B984700BF0023184680BD2A
:101850004C6B0020AD0C4000551640003D1640007A
:101860006D16400080B500AF054B98470346002B2E
:1018700001D0044B9847044B984700BF80BD00BF80
:101880001918400021164000D514400080B586B0DC
:1018900000AF0346FB71142200213A483A4B9847A7
:1018A000FB79002B07D0394BDB7DBB75384B3B6197
:1018B0000823FB7506E0354BDB7CBB75354B3B6184
:1018C0000423FB75314B5B7C03F03F03FB73FB7B15
:1018D0001C2B02D0FB7B3F2B0BD13B691C221A70C7
:1018E0003B690A225A703B690522DA70FB7D0C3392
:1018F000FB75BA7DFB7D9A4201D9FB7DBB75BB7D33
:1019000080211846244B9847034683F00103DBB23D
:10191000002B32D11D4B5B7B1846204B984703466A
:10192000002B01D0802300E00023BB73FB79002B48
:1019300015D0FB7D9BB2023B9BB21B0A9BB21AB235
:10194000FB7D9BB2023B9BB21B021BB213431BB23B
:101950009AB20C4B1A800B4ABB7BD37007E0FB7D1D
:10196000013BDAB2074B1A70064ABB7B9370BB7D12
:10197000194604480A4B984700E000BF1837BD4697
:1019800080BD00BF906B0020016F41004C6B0020B8
:10199000986B0020946B0020FD134000150E400052
:1019A0004914400080B582B000AF084BDB7CFB716E
:1019B000FB79002B02D1064B984701E0054B984775
:1019C000054B984700BF0837BD4680BD4C6B0020D3
:1019D000211640009D164000D514400080B582B00D
:1019E00000AF174BDB7C03F00103002B14BF012376
:1019F0000023FB71124BDB7C03F00203002B14BFAE
:101A000001230023BB71BB79002B11D00C4B5A7BF7
:101A1000FB79002B14BF01230023DBB283F0010309
:101A2000DBB203F00103DBB219461046054B9847C1
:101A3000054B9847054B984700BF0837BD4680BD0A
:101A40004C6B0020750D400021164000D51440005D
:101A500080B500AF802108201A4B9847034683F0D9
:101A60000103DBB2002B2BD1174B5B7B17491846C8
:101A7000174B98470346022B09D0032B02D0002BAB
:101A80000FD009E0134B9847134B984719E0134BBD
:101A90009847114B984714E0114B98470E4B9847C5
:101AA0000FE000BF094B4FF400325A60074B1B6830
:101AB0001BBA064A1360082104480A4B984700E005
:101AC00000BF80BDFD1340004C6B0020A46B0020C4
:101AD0000D0D400055164000D51440003D16400045
:101AE0006D1640004914400080B584B000AF034635
:101AF000FB71FB7983F00103DBB2002B0CD0234B8D
:101B00005B7B1846224B98470346002B04D0214BA1
:101B10009847214B984735E0204B1C4A527C1A705D
:101B20001F4B1A4A927C1A701E4B184AD27C1A70AC
:101B30001D4B164A127D1A701C4B144A927D1A7066
:101B40001B4B124AD27D1A70194B1B885B02FB603B
:101B5000FB79002B01D0802300E000231946F868B0
:101B6000144B9847034683F00103DBB2002B08D1E6
:101B7000114AFB791370114B01221A70104B9847D0
:101B800000E000BF1037BD4680BD00BF4C6B002099
:101B9000150E400085164000D51440008B6B0020C8
:101BA0008A6B0020896B0020886B00208D6B0020E1
:101BB0008C6B0020FD134000846B0020836B0020A1
:101BC0009962410080B483B000AF03463960FB7175
:101BD0001346BB71FB79002B14BF01230023DAB23B
:101BE000054B1A70054B01221A7000BF0C37BD4619
:101BF0005DF8047B704700BF86B5002021000020FF
:101C000090B587B002AFB9607A603B600346FB7362
:101C10002E4B1B78DBB283F00103DBB2002B01D02B
:101C200000234EE0294B00221A70FB7B002B01D0D1
:101C3000812000E002203B68002B01D03B6800E0DF
:101C4000234B00937B68BA680021224CA0470346CF
:101C500083F00103DBB2002B04D01C4B01221A706D
:101C600000232EE03B68002B24D100BF174B1B78CC
:101C7000DBB283F00103DBB2002BF7D1164B1B78EC
:101C8000DBB2002B01D000231BE0144B9A687B6869
:101C9000D31A124A9360104B1B78DBB2002B14BF8F
:101CA00001230023DBB283F00103DBB203F0010365
:101CB000DBB206E0094B9A687B68D31A074A936047
:101CC000012318461437BD4690BD00BF21000020F7
:101CD000C51B40007551400086B50020140000204F
:101CE00080B400AF024B1846BD465DF8047B7047D8
:101CF0001CC9410080B400AF064B1B681B68054A35
:101D000012681268528892B213441846BD465DF8B4
:101D1000047B7047B86B002080B584B000AF78605A
:101D20000B46FB70124B9847F8607B681B781A468D
:101D30007B6813447B6010E07B685B78042B11D0D8
:101D40007B685B78FA789A4201D17B680CE07B680B
:101D50001B781A467B6813447B60FA687B689A425A
:101D6000EAD800E000BF002318461037BD4680BD0A
:101D7000F51C400080B584B000AF03460A46FB71F5
:101D80001346BB711E4B1B78002B01D1002332E0A0
:101D90001C4B1B681B681B79FA799A4201D30023FC
:101DA00029E0184B1B681B68174A1360174B9847AC
:101DB000F8601AE0144B1B685B78042B0DD1124BB2
:101DC0001B689B78FA799A4207D10F4B1B68DB7826
:101DD000BA799A4201D101230DE00B4B1B680A4AE4
:101DE000126812781344084A1360074B1B68FA689C
:101DF0009A42DFD8002318461037BD4680BD00BF89
:101E0000B46B0020B86B0020BC6B0020F51C4000B8
:101E100080B584B000AF0346FB71FB790021184602
:101E20001E4B9847034683F00103DBB2002B01D021
:101E300000232FE01A4B1B685A68FB799B00134460
:101E40001B68BB60BB68DB68984703461A46FB7992
:101E500011461846114B9847034683F00103DBB245
:101E6000002B01D0002315E00E4B1B68FB60052101
:101E7000F8680D4B9847F860FB68002B05D0FB68AD
:101E80009B781846094B9847F1E700BFBB685B6831
:101E90009847012318461037BD4680BD751D400088
:101EA000B86B0020BC6B0020191D4000714E400033
:101EB00080B584B000AF03460A46FB711346BB7180
:101EC000BA79FB79114618461A4B9847034683F0B6
:101ED0000103DBB2002B01D0002327E0164B1B6867
:101EE000FB600521F868154B9847F860FB68002BEC
:101EF00011D0FB689878FB68D978FB689B889BB207
:101F00001A460F4B9847034683F00103DBB2002BC0
:101F1000E7D000230AE000BF0A4B1B685A68FB7930
:101F20009B0013441B681B689847034618461037EC
:101F3000BD4680BD751D4000BC6B0020191D4000D2
:101F4000814C4000B86B002080B582B000AF0F4BD1
:101F50001B78002B10D00023FB7106E0FB7918469C
:101F60000B4B9847FB790133FB710A4B1B681B68CD
:101F70001B79FA799A42F1D3044B00221A70064B6E
:101F800001221A8000BF0837BD4680BDB46B002017
:101F9000111E4000B86B0020AC6B002080B582B0F1
:101FA00000AF144B1B78002B1FD00023FB7115E0F2
:101FB000114B1B685A68FB799B0013441B681B6913
:101FC000002B08D00C4B1B685A68FB799B0013440C
:101FD0001B681B699847FB790133FB71064B1B6833
:101FE0001B681B79FA799A42E2D300BF0837BD46D5
:101FF00080BD00BFB46B0020B86B002080B500AF7F
:10200000064BDB88022B01D0002304E002210448A8
:10201000044B98470123184680BD00BF98B50020A7
:10202000AC6B0020594C400080B500AF0B4BDB88F7
:10203000022B01D000230EE0084B9B88DBB2184630
:10204000074B984703469AB2064B1A80022105486F
:10205000054B98470123184680BD00BF98B5002066
:10206000E14E4000C06B0020594C400080B400AFEE
:102070000C4BDB88002B01D000230DE0094B5B8863
:10208000012B08D1084B1B8823F002039AB2064BA0
:102090001A80012300E000231846BD465DF8047B4A
:1020A000704700BF98B50020AC6B002080B500AF32
:1020B0000A4BDB88002B01D000230CE0074B5B8828
:1020C000002B07D1054B9B88DBB21846044B984781
:1020D000034600E00023184680BD00BF98B50020ED
:1020E0004950400080B400AF094BDB88002B01D081
:1020F000002307E0064B5B88012B02D000BF0023C2
:1021000000E000231846BD465DF8047B704700BF21
:1021100098B5002080B500AF0D4BDB88002B01D0B7
:10212000002312E00A4B5B88002B0DD1084B9B88E3
:10213000DBB21846074B9847054B9B88DBB2184625
:10214000054B9847034600E00023184680BD00BFBA
:1021500098B50020CD524000554F400080B500AFEB
:10216000054B5B88DBB203F07F03DBB21846034B01
:10217000984700BF80BD00BF98B50020A54B400028
:1021800080B400AF074BDB88002B01D0002303E0B5
:10219000044B054A1A6101231846BD465DF8047BCD
:1021A000704700BF98B500205D21400080B584B025
:1021B00000AF0023FB71294B5B88DBB2032B20D8D7
:1021C00001A252F823F000BFD9214000E3214000D2
:1021D000ED214000F721400004212148214B984780
:1021E00011E00923FB71204BBB600CE00323FB7162
:1021F0001E4BBB6007E00C23FB711D4B9847B8607A
:1022000001E0002326E0FB79002B22D00023FB73A2
:102210000DE0FB7BFA7BB9680A44127891B2154A4B
:102220005B0013440A465A80FB7B0133FB73FA7B45
:10223000FB799A42EDD3FB790133DBB25B00DAB272
:102240000C4B1A700B4B1B789BB219460948054B77
:102250009847012318461037BD4680BD98B5002029
:1022600094000020594C400098000020A400002059
:10227000E11C4000A800002080B582B000AF414BB7
:102280005B88FB713F4B5B881B0A9BB2DBB2013B57
:102290000E2B65D801A252F823F000BFD9224000CE
:1022A000EF2240004D2340006123400061234000A5
:1022B000612340006123400061234000612340000E
:1022C00061234000612340006123400061234000FE
:1022D000612340002B2340002B4B1A682A4B1B68BC
:1022E0001B789BB219461046284B98473BE0264B7B
:1022F0001B685B7CFA799A4201D300233EE0224BB3
:102300005A68FB79DB00134418681F4B5A68FB7945
:10231000DB0013441B685B889BB219461B4B984734
:10232000184B9B6802225A701DE0174B9B68002BCC
:1023300001D1002322E0144B9A68134B9B685B8801
:102340009BB219461046114B98470CE0104B98472A
:10235000034683F00103DBB2002B03D000230DE022
:1023600000230BE000BF074BDA88064B9B899A429B
:1023700003D2044BDA88034B9A81012318460837AD
:10238000BD4680BD98B5002088000020594C400013
:10239000AD21400080B500AF064BDB88012B01D09A
:1023A000002304E001210448044B98470123184608
:1023B00080BD00BF98B50020B46B0020594C400090
:1023C00080B582B000AF274BDB88002B01D0002303
:1023D00043E0254B98470346002B01D100233CE006
:1023E000204B5B88DBB2214A1268527C934201DDAC
:1023F000002332E01E4B98471A4B5B88DAB21D4B24
:102400001A701C4B1B78002B01D1012325E0174BC0
:102410005A68184B1B7803F10053013BDB0013444F
:10242000154A13600023FB710FE0FB790021184669
:10243000124B9847034683F00103DBB2002B01D017
:1024400000230AE0FB790133FB710B4B1B681B680F
:102450001B79FA799A42E8D3012318460837BD461A
:1024600080BD00BF98B50020094C400088000020C6
:10247000491F4000B46B0020B86B0020B11E400023
:1024800080B582B000AF1E4BDB88012B01D000234A
:1024900032E01C4B1B78002B01D100232CE0184BA1
:1024A0009B88FB71184B1B681B681B79FA799A4251
:1024B00001D3002320E0FB7900211846134B9847F5
:1024C000034683F00103DBB2002B01D0002313E0AD
:1024D0000D4B1B685A68FB799B0013441B683B60DB
:1024E0003B68DB68984703461A46094B1A7001217E
:1024F0000748084B9847012318460837BD4680BD5A
:1025000098B50020B46B0020B86B0020751D40000A
:10251000B06B0020594C400080B582B000AF144B26
:10252000DB88002B01D000231EE0124B1B78002B10
:1025300001D1002318E00E4B9B88FB710C4B5B888C
:10254000BB71FB7918460C4B9847034683F0010397
:10255000DBB2002B01D0002306E0BA79FB791146EB
:102560001846064B9847034618460837BD4680BDB7
:1025700098B50020B46B0020111E4000B11E400031
:1025800080B500AF4D4B1B785BB2002B3EDA4B4B56
:10259000DB88002B01D100238EE0484B1B7803F031
:1025A0001F03002B14D1454B5B78062B08D0082B5A
:1025B0000AD0002B00D00BE0414B984703467BE04C
:1025C000404B9847034677E03F4B9847034673E0FC
:1025D0003A4B1B7803F01F03012B08D1374B5B7874
:1025E0000A2B00D003E0394B9847034664E0334B95
:1025F0001B7803F01F03022B5DD1304B5B78002B5F
:1026000000D058E0324B9847034655E02B4B1B78DF
:1026100003F01F03002B2AD1284B5B78013B082BCA
:1026200024D801A252F823F0552640006D26400020
:102630005D2640006D2640004D2640006D2640007E
:102640006D2640006D26400065264000214B9847CE
:10265000034631E0204B984703462DE01F4B984737
:10266000034629E01E4B9847034625E000BF134B65
:102670001B7803F01F03012B08D1104B5B780B2B49
:1026800000D003E0174B9847034615E00B4B1B782F
:1026900003F01F03022B0ED1084B5B78012B02D0F5
:1026A000032B04D007E0104B9847034604E00F4B80
:1026B0009847034600E00023184680BD98B50020E7
:1026C000FD1F4000792240009523400081244000F6
:1026D00029204000812140006D204000E52040007D
:1026E000C123400019254000AD20400015214000C5
:1026F00080B582B000AF204B1B78002B01D10023A6
:1027000036E01E4B9B88FB711D4B1B681B681B79B9
:10271000FA799A4201D300232AE0FB790021184676
:10272000184B9847034683F00103DBB2002B01D01E
:1027300000231DE0124B1B685A68FB799B00134471
:102740001B683B603B68DB68984703461A46FB7989
:10275000114618460B4B9847034683F00103DBB242
:10276000002B01D0002303E03B689B689847034699
:1027700018460837BD4680BDB46B002098B50020D0
:10278000B86B0020751D400080B582B000AF1E4BB5
:102790001B78002B01D1002332E01C4B9B88FB717E
:1027A0000023FB7124E01A4B1B685A68FB799B00DD
:1027B00013441B683B603B68DB68984703461A4636
:1027C000FB7911461846134B9847034683F00103E3
:1027D000DBB2002B01D0002312E03B689B689847D6
:1027E0000346002B01D001230AE0FB790133FB7182
:1027F000074B1B681B681B79FA799A42D3D30023D5
:1028000018460837BD4680BDB46B002098B500203F
:10281000B86B0020751D400080B500AF1E4B002234
:102820009A811D4B00221A611B4B00225A611A4BE0
:102830001B785BB2002B05DA174BDB88002B01D12C
:10284000002327E0144B1B7803F06003002B06D114
:10285000124B98470346002B01D001231AE00E4B80
:102860001B7803F01F03012B06D10D4B984703463D
:10287000002B01D001230DE0074B1B7803F01F0351
:10288000022B06D1074B98470346002B01D00123AA
:1028900000E00023184680BD98B500208125400047
:1028A000F12640008927400080B586B000AFF8606F
:1028B000B9607A6000237B61FB68002B12D04FF077
:1028C000FF3313E00B4B1B680B4A1268B9681046C4
:1028D0009847BB680133BB607B6901337B617B68D0
:1028E000013B7B607B68002BECDC7B69184618376A
:1028F000BD4680BD88B5002090B5002080B586B06B
:1029000000AFF860B9607A6000237B61FB68012B3F
:102910001ED0FB68022B1BD0FB68032B18D04FF096
:10292000FF3319E00E4B1A680E4B1868BB68591C30
:10293000B9601B78194690470346002B02DA4FF026
:10294000FF3309E07B6901337B617B68013B7B607E
:102950007B68002BE6D17B6918461837BD4680BDE1
:102960008CB5002090B5002080B582B000AF7860B3
:102970007868034B984700BF0837BD4680BD00BF4D
:102980003D43400080B500AF0920084B98470A201E
:10299000064B98470B20054B98470C20034B984754
:1029A0000D20024B984700BF80BD00BF6929400041
:1029B00080B489B000AF78607B68FB61FB69BB6164
:1029C000BB695A09FB697B617B6903F01F03012125
:1029D00001FA03F33A61FB603B69BB60BB6803F536
:1029E000001303F207735B021A46FB68536000BFD3
:1029F0002437BD465DF8047B704780B487B000AFD4
:102A0000786039607B687B613B683B617B69FB6018
:102A1000FB6803F5001303F207735B021A463B6978
:102A2000536000BF1C37BD465DF8047B704780B41F
:102A30008BB000AFF860B9607A60FB687B62BB68FE
:102A40003B627B68FB617B6ABB61BB6903F500137A
:102A500003F207735B027B61FB6903F00803002B41
:102A600003D07B693A6A5A6602E07B693A6A1A6661
:102A7000FB6903F01003002B04D07B693A6AC3F8AA
:102A8000942003E07B693A6AC3F89020FB6903F065
:102A90002003002B03D07B693A6A1A6502E07B6948
:102AA0003A6A5A65FB6903F0C003002B03D07B69C7
:102AB0003A6A1A6202E07B693A6A5A62FB6903F079
:102AC0008003002B04D07B693A6AC3F8842003E0BA
:102AD0007B693A6AC3F88020FB6903F00103002B8D
:102AE00006D07B691A6F3B6A1A437B691A6706E056
:102AF0007B691A6F3B6ADB431A407B691A67FB6983
:102B000003F00203002B06D07B695A6F3B6A1A431D
:102B10007B695A6706E07B695A6F3B6ADB431A4060
:102B20007B695A6700BF2C37BD465DF8047B704750
:102B300080B48DB000AF786039607B68FB623B6821
:102B4000BB62FB6A7B627B6A5A09FB6A3B623B6A37
:102B500003F01F03012101FA03F3FA61BB61BB6AB1
:102B60007B61FB693B613B6903F5001303F207736B
:102B70005B02FB607B6903F00803002B03D0FB685A
:102B8000BA695A6602E0FB68BA691A667B6903F0A3
:102B90001003002B04D0FB68BA69C3F8942003E04B
:102BA000FB68BA69C3F890207B6903F02003002B0F
:102BB00003D0FB68BA691A6502E0FB68BA695A6516
:102BC0007B6903F0C003002B03D0FB68BA691A626B
:102BD00002E0FB68BA695A627B6903F08003002B4C
:102BE00004D0FB68BA69C3F8842003E0FB68BA69C3
:102BF000C3F880207B6903F00103002B06D0FB683B
:102C00001A6FBB691A43FB681A6706E0FB681A6F04
:102C1000BB69DB431A40FB681A677B6903F0020358
:102C2000002B06D0FB685A6FBB691A43FB685A67D2
:102C300006E0FB685A6FBB69DB431A40FB685A67C2
:102C400000BF3437BD465DF8047B704780B48DB05B
:102C500000AF78600B46FB707B68FB62FB7887F8FF
:102C60002B30FB6A7B627B6A3B623B6A5B09FB61E0
:102C7000FB6903F5001303F207735B02BB6197F86E
:102C80002B30012B09D1FB6A7B617B6903F01F03A9
:102C900001229A40BB691A610CE097F82B30002B97
:102CA00008D1FB6A3B613B6903F01F0301229A4094
:102CB000BB695A61FB6AFB60FB6803F01F030122DA
:102CC0009A40BB69C3F8A02000BF3437BD465DF809
:102CD000047B704780B48BB000AF78600B46FB700C
:102CE0007B687B62FB7887F823307B6AFB61FB693A
:102CF000BB61BB695B097B617B6903F5001303F270
:102D000007735B023B6197F82330002B09D07B6A85
:102D1000FB60FB6803F01F0301229A403B691A63C2
:102D200008E07B6ABB60BB6803F01F0301229A4086
:102D30003B695A6300BF2C37BD465DF8047B704782
:102D400080B48DB000AF78600B46FB707B68FB628F
:102D5000FB7887F82B30FB6A7B627B6A5A09FB6A37
:102D60003B623B6A03F01F03012101FA03F3FA619E
:102D7000BB6197F82B30FB75FB693B613B6903F541
:102D8000001303F207735B02FB60FB7D013B032B27
:102D90002ED801A252F823F0CD2D4000DF2D4000A7
:102DA000A92D4000BB2D4000FB68BA69C3F8C420C0
:102DB000FB68BA69C3F8D0201FE0FB68BA69C3F8A2
:102DC000C420FB68BA69C3F8D42016E0FB68BA696E
:102DD000C3F8C020FB68BA69C3F8D0200DE0FB68D7
:102DE000BA69C3F8C020FB68BA69C3F8D42004E00C
:102DF000FB68BA69C3F8B42003E0FB68BA69C3F89A
:102E0000B02000BF3437BD465DF8047B704700BF7B
:102E100080B500AFA34B984701217620A24B98477D
:102E200001217620A14B9847002102209E4B984714
:102E3000882102209E4B9847022102209D4B9847F3
:102E400000224FF4C06100209B4B98474FF4C061B3
:102E500000209A4B984700216E20954B98476E2092
:102E6000974B984700216020914B98476020944BE6
:102E70009847002161208E4B98476120904B9847DE
:102E8000002170208A4B984770208D4B9847002175
:102E90006F20874B98476F20894B9847002163200C
:102EA000834B98476320864B984700216220804BD4
:102EB00098476220824B984700216C207C4B9847B2
:102EC0006C207F4B984700216B20794B98476B20F3
:102ED0007B4B984700216620754B98476620784BBE
:102EE000984700216520724B98476520744B98479E
:102EF000002167206E4B98476720714B984700214F
:102F000064206B4B984764206D4B984700216A20E2
:102F1000674B98476A206A4B984700216D20644BA5
:102F200098476D20664B984700216820604B984772
:102F30006820634B9847002169205D4B98476920C2
:102F40005F4B984700217C20574B98470021722007
:102F5000574B984772205A4B984700217320544B87
:102F600098477320564B984700214B20504B984769
:102F70004B20534B9847002148204D4B9847482001
:102F80004F4B984700214020494B984740204C4BDD
:102F9000984700214120464B98474120484B98478D
:102FA00000214220424B98474220454B9847002140
:102FB00043203F4B98474320414B984700214420F2
:102FC0003B4B984744203E4B984700214520384BC7
:102FD000984745203A4B984700214620344B984764
:102FE0004620374B984700214720314B98474720D0
:102FF000334B9847002152202D4B98475220304B9D
:103000009847002153202A4B984753202C4B984730
:1030100000215420264B98475420294B98470021E3
:103020005520234B98475520254B98470021562083
:103030001F4B98475620224B9847002157201C4B86
:10304000984757201E4B984700215820184B984707
:1030500058201B4B984700215920154B9847592061
:10306000174B984700215A20114B98475A20144B70
:10307000984700215B200E4B98475B20104B9847E8
:1030800000215C200A4B98475C200D4B984700219B
:103090005D20074B98475D20094B984700215E2033
:1030A00010E000BF852940004D2C4000D52C400089
:1030B000312B4000412D40002F2A4000FB294000C9
:1030C000B12940002A4B98475E202A4B984700219F
:1030D0005F20274B98475F20264B984702211220FC
:1030E000234B98471220234B984702211320204B53
:1030F000984713201F4B9847022114201C4B9847D8
:1031000014201C4B984702210020194B984700209F
:10311000184B984702210120154B98470120154B69
:10312000984700210C20124B98470C20114B9847D0
:1031300000210D200E4B98470D200E4B9847002183
:103140000E200B4B98470E200A4B98470121052073
:10315000074B98470520074B984701211820064B3D
:10316000984700211820054B984700BF80BD00BF3D
:10317000312B4000B12940004D2C4000D52C40009F
:1031800080B483B000AF78600B46FB70FB78002BF7
:1031900006D07B681B6843F004027B681A6005E078
:1031A0007B681B6823F004027B681A6000BF0C3741
:1031B000BD465DF8047B704780B483B000AF786093
:1031C0000B46FB70FB78002B06D07B681B6843F036
:1031D00008027B681A6005E07B681B6823F0080220
:1031E0007B681A6000BF0C37BD465DF8047B7047F2
:1031F00080B483B000AF78600B46FB70FB78002B87
:1032000006D07B681B6843F010027B681A6005E0FB
:103210007B681B6823F010027B681A6000BF0C37C4
:10322000BD465DF8047B704780B483B000AF786022
:103230000B46FB70FB78002B06D07B685B6843F085
:1032400001027B685A6005E07B685B6823F001023D
:103250007B685A6000BF0C37BD465DF8047B704741
:1032600080B483B000AF78600B46FB70FB78002B16
:1032700006D07B685B6843F002027B685A6005E019
:103280007B685B6823F002027B685A6000BF0C37E2
:10329000BD465DF8047B704780B485B000AF7860B0
:1032A00039603B68204A934201D9FF2336E03B68EE
:1032B0001E4A934203D94FF4A013FB6021E03B6800
:1032C0001B4A934203D94FF48013FB6019E03B681B
:1032D000184A934203D94FF44023FB6011E03B6846
:1032E000154A934203D94FF40023FB6009E03B6881
:1032F000124A934203D94FF48023FB6001E000237C
:10330000FB607B685B6823F4E0127B685A607B6833
:103310005A68FB681A437B685A60002318461437C2
:10332000BD465DF8047B7047001C4E0E006889099D
:10333000000E270700B4C404005A6202002D3101B8
:1033400080B483B000AF78600B46FB70FB7800332D
:10335000012B06D87B68DB6843F001027B68DA60EA
:1033600006E07B68DB6823F001027B68DA6000BF5F
:1033700000BF0C37BD465DF8047B704790B585B043
:1033800000AF78600B46FB701346BB700023BB6038
:103390000023FB73FB787B7301217868214B9847EE
:1033A00007F10803F978022278681F4CA047BB6830
:1033B000052B23D0FF23FB731C4BFF221A60BB7825
:1033C000BB7318E07B7B0133DBB203F01F037B731D
:1033D00007F10803797B02227868134CA047BB6889
:1033E000222B05D17B7BFB737B7B104A136005E0AE
:1033F000BB7B0133BB73BB7B1F2BE3D900217868F8
:10340000084B9847FB7BFF2B06D007F10803797B1D
:1034100001227868044CA047FB7B18461437BD4650
:1034200090BD00BFF13140005D3A4000C46B002008
:1034300080B586B000AFF8600B467A60FB72FB7A0D
:1034400019461448144B98477968F868134B984705
:103450000346FB75FB7D002B01D0002316E0FB7AB1
:1034600000221946F8680E4B98470346BB75BB7D92
:10347000FF2B01D1002309E0BA7DFB7A9A4204D0E8
:10348000FB7A1946F868044B9847FB7D18461837B5
:10349000BD4680BD00400340553840009932400091
:1034A0007D33400090B587B000AF78600B46FB706D
:1034B0001346BB7001217868434B9847FB787B75B6
:1034C00007F11003797D01227868404CA04703463C
:1034D0003B753B7D002B05D0002178683A4B98471F
:1034E0003B7D6CE03B6903F00403002B05D1002118
:1034F0007868354B9847FF2361E0BB78002B05D1F6
:1035000000217868304B98473B7D58E007F10C0369
:10351000797D1E2278682D4CA04703463B753B7D84
:10352000002B05D000217868274B98473B7D46E06B
:103530003B6903F48043002B08D0FB6803F00603CB
:10354000002B03D00123FB750123BB753B6903F4FA
:103550008053002B08D0FB6803F00503002B03D039
:103560000023FB750123BB753B6903F40053002B5B
:1035700008D0FB6803F00203002B03D00123FB7586
:103580000023BB753B6903F40063002B08D0FB6884
:1035900003F00103002B03D00023FB750023BB7550
:1035A000FB7D194678680A4B9847BB7D19467868B9
:1035B000084B984700217868034B98473B7D184695
:1035C0001C37BD4690BD00BFF13140005D3A400060
:1035D000293240006132400090B58BB000AF786076
:1035E0000B46FB70914BFB6100237B62002387F845
:1035F0002330002387F82230012178688C4B9847CC
:1036000007F11003F978002278688A4CA047034636
:10361000FB76FB7E002B05D000217868844B984711
:10362000FB7EFEE03B6923F480533B613B6923F45E
:1036300090433B613B6943F480633B613B69F978AC
:10364000002278687C4CA0470346FB76FB7E002B6B
:1036500005D000217868764B9847FB7EE1E040F288
:10366000E1137B61F9787B6904227868724CA0478A
:103670000346FB76FB7E002B05D0002178686C4B5F
:103680009847FB7ECDE007F11003F97800227868B7
:10369000684CA0470346FB76FB7E002B05D000213B
:1036A0007868634B9847FB7EBBE03B6943F4445327
:1036B0003B613B69F978002278685F4CA04703467C
:1036C000FB76FB7E002B05D000217868584B98478D
:1036D000FB7EA6E03B6943F400733B613B6923F446
:1036E00080633B613B69F97800227868524CA047BF
:1036F0000346FB76FB7E002B05D0002178684C4BFF
:103700009847FB7E8DE007F11003F9780122786875
:10371000484CA0470346FB76FB7E002B05D00021DA
:103720007868434B9847FB7E7BE03B6903F02003BE
:10373000002B0FD1FB69002BE5D07B6A01337B6244
:103740007A6AFB699A42DED300217868384B984741
:10375000012366E000BF07F10C03F97805227868C1
:10376000344CA0470346FB76FB7E002B05D000219E
:1037700078682F4B9847FB7E53E0FA687B691340CB
:1037800003F48073002B06D0012387F82330012334
:1037900087F8223028E0FA687B69134003F0400381
:1037A000002B06D0002387F82330012387F822302E
:1037B0001AE0FA687B69134003F08003002B06D0FF
:1037C000012387F82330002387F822300CE0FA68C1
:1037D0007B69134003F02003002B05D0002387F8FA
:1037E0002330002387F8223097F823301946786871
:1037F000124B984797F8223019467868104B984733
:10380000002178680F4B984701210F480F4B9847CC
:1038100001210D480E4B984700217868044B9847CA
:10382000FB7E18462C37BD4690BD00BF40420F00BE
:10383000F13140005D3A4000B93A40002932400081
:10384000613240004133400000400340B931400044
:103850008131400090B587B000AF78600B46FB70B7
:10386000FB78BB740A237B610123FB740121786818
:10387000154B98474FF40043FB60FB68B97C00226E
:103880007868124CA04707F10C03B97C00227868D5
:103890000F4CA0477B69013B7B61FB6803F400434D
:1038A000002B02D07B69002BEDD100217868064BFC
:1038B00098477B69002B01D10023FB74FB7C1846E1
:1038C0001C37BD4690BD00BFF1314000B93A400001
:1038D0005D3A400080B485B000AFF860B9607A60AE
:1038E000FA68BB681B0113447A681A6000BF14377A
:1038F000BD465DF8047B704780B485B000AFF860CA
:10390000B9607A60FA68BB681B01134404337A68B3
:103910001A6000BF1437BD465DF8047B704780B461
:1039200085B000AFF860B9607A60FA68BB681B01C7
:10393000134408337A681A6000BF1437BD465DF837
:10394000047B704780B485B000AFF860B9607A60DE
:10395000FA68BB681B0113440C337A681A6000BF15
:103960001437BD465DF8047B704780B483B000AF68
:1039700078607B689B6803F00403002B14BF01236D
:103980000023DBB218460C37BD465DF8047B704758
:1039900080B483B000AF7860084611461A460346EB
:1039A000FB700B46BB7013467B7000BF7B689B6847
:1039B00003F00403002BF9D0FB78DB0503F07862F9
:1039C000BB789B0403F4F8031A437B78002B02D0E6
:1039D0004FF0005301E04FF080531A433B8A1343EA
:1039E00043F0804343F400337A68536300BF0C37DD
:1039F000BD465DF8047B704780B483B000AF78604B
:103A000000BF7B689B6803F00403002BF9D07B6840
:103A10005B6B9BB218460C37BD465DF8047B704764
:103A200080B584B000AF786039600023FB6008E0A7
:103A3000FB680133FB60FA683B689A4201D30123BB
:103A400006E07868044B98470346002BF0D000232B
:103A500018461037BD4680BD6B39400090B587B021
:103A600002AFF8607B600B46FB721346BB72BA7AFA
:103A7000F97A002300930123F8680B4CA0470B4907
:103A8000F8680B4B98470346012B01D1012307E04F
:103A9000F868084B984703461A467B681A6000236B
:103AA00018461437BD4690BD9139400040420F0082
:103AB000213A4000F939400090B587B002AFF86074
:103AC0007B600B46FB721346BB727B689BB2BA7A73
:103AD000F97A00930023F868074CA0470749F86873
:103AE000074B98470346012B01D1012300E0002337
:103AF00018461437BD4690BD9139400040420F0032
:103B0000213A400080B485B000AFF860B9607A60B7
:103B10007B68002B03D0FB68BA685A6602E0FB683A
:103B2000BA681A6600BF1437BD465DF8047B70475B
:103B300080B487B000AFF860B9607A60FB687A68DB
:103B40005A64BB68B3F1C05F4AD0B3F1C05F08D814
:103B5000B3F1006F16D0B3F1805F2CD0002B69D089
:103B600064E0B3F1205F65D0B3F1205F03D8B3F117
:103B7000005F4AD05AE0B3F1405F5BD0B3F1605FC1
:103B800058D053E0FB681B6F7B61FB681A6F7B6842
:103B9000D9437B690B401A40FB681A67FB685B6F6F
:103BA0007B61FB685A6F7B68D9437B690B401A4085
:103BB000FB685A673AE0FB681B6F7B617A687B6938
:103BC0001A43FB681A67FB685B6F7B61FB685A6F7F
:103BD0007B68D9437B690B401A40FB685A6725E034
:103BE000FB681B6F7B61FB681A6F7B68D9437B693D
:103BF0000B401A40FB681A67FB685B6F7B617A6851
:103C00007B691A43FB685A6710E0FB681B6F7B6196
:103C10007A687B691A43FB681A67FB685B6F7B6194
:103C20007A687B691A43FB685A6700BFFB687A6849
:103C30005A6000E000BF1C37BD465DF8047B70474A
:103C400080B584B000AFF860B9607A60B968F86890
:103C5000194B98477B6803F001031A46B968F86866
:103C6000164B98477B6803F00A03002B03D0FB68D0
:103C7000BA681A6202E0FB68BA685A627B6803F0AD
:103C80000203002B04D0FB68BA68C3F8802008E068
:103C90007B6803F00803002B03D0FB68BA68C3F805
:103CA0008420FB68BA685A61FB68BA681A6000BF72
:103CB0001037BD4680BD00BFAD3D4000053B400014
:103CC00080B584B000AFF860B9607A603B60B968D5
:103CD000F868124B9847BA69B968F868104B98476A
:103CE0003B68002B03D0FB68BA681A6502E0FB68EA
:103CF000BA685A657B68002B03D0FB68BA681A6300
:103D000002E0FB68BA685A63FB68BA681A61FB682C
:103D1000BA681A6000BF1037BD4680BDAD3D400097
:103D2000053B400080B485B000AFF860B9607A60B0
:103D30007B6803F01003002B20D0FB68BA68C3F83F
:103D4000B0207B6803F02003002B04D0FB68BA6826
:103D5000C3F8D42003E0FB68BA68C3F8D0207B68BE
:103D600003F04003002B04D0FB68BA68C3F8C020FE
:103D700008E0FB68BA68C3F8C42003E0FB68BA68CF
:103D8000C3F8B42000BF1437BD465DF8047B70470C
:103D900080B483B000AF786039607B683A681A6499
:103DA00000BF0C37BD465DF8047B704780B483B01C
:103DB00000AF786039607B683A685A6400BF0C379E
:103DC000BD465DF8047B704780B483B000AF786077
:103DD0007B68DB6C18460C37BD465DF8047B70478A
:103DE00080B483B000AF78607B689B6C18460C375A
:103DF000BD465DF8047B704790B587B002AFF860B0
:103E0000B9607A607B6803F0F043B3F1005F43D0A0
:103E1000B3F1005F09D8B3F1805F1FD0B3F1C05F89
:103E20002BD0B3F1006F0AD06DE0B3F1405F48D002
:103E3000B3F1605F45D0B3F1205F3CD063E0BA6876
:103E40004FF00061F868334B98477B6803F001033B
:103E50001A46B968F868304B984756E0BA684FF090
:103E60008051F8682B4B98477B6803F001031A4692
:103E7000B968F868284B984747E0BA684FF0C051D6
:103E8000F868244B98477B6803F001031A46B96829
:103E9000F868214B984738E0BA684FF00051F8684D
:103EA0001C4B98477B6803F001031A46B968F86811
:103EB000194B984729E07A68B968F868174B984712
:103EC00023E07B6803F06053B3F1605F0CBF012314
:103ED0000023DBB21A467B6803F00403002B14BFF7
:103EE00001230023DBB219467B6803F00103002B9A
:103EF00014BF01230023DBB200930B46B968F868B6
:103F0000074CA04701E0002300E0012318461437C6
:103F1000BD4690BD313B4000053B4000413C400068
:103F2000C13C400080B584B000AF786039607868EB
:103F30002C4B9847F86078682B4B98470246FB68F3
:103F40001340FB60FB68002B3CD00023BB6034E0D7
:103F5000264ABB681B0113441A683B689A4226D163
:103F6000224ABB681B01134404331A68FB681340E0
:103F7000002B1CD01D4ABB681B0113440C331B686B
:103F80001A49BA6812010A4410681849BA6812013D
:103F90000A440432126811469847144ABB681B0150
:103FA000134404331B68DB43FA681340FB60BB68AF
:103FB0000133BB60BB68062B03D8FB68002BC7D15D
:103FC00000E000BF0A4B1B68002B07D0094B1B68A1
:103FD000002B03D0074B1B687868984700BF103749
:103FE000BD4680BDC93D4000E13D4000C86B00209A
:103FF00094B500203C6C002080B586B000AFF8601E
:10400000B9607A603B60214B1B68062B01D9012304
:1040100038E00023FB7511E0FB7D1B011C4A1344B3
:104020003B613B691A68BB689A4204D13B695A6894
:104030007B689A4208D0FB7D0133FB75FA7D134BF8
:104040001B689A42E8D900E000BF3B69BA681A6071
:104050003B697A685A603B693A689A603B693A6A98
:10406000DA60FA7D094B1B6801339A4204D1074B91
:104070001B680133054A13603A687968F868054B94
:104080009847002318461837BD4680BD386C00207D
:10409000C86B0020253D400080B500AF09210248D3
:1040A000024B984700BF80BD000E0E40253F4000E8
:1040B00080B500AF0A210248024B984700BF80BD7F
:1040C00000100E40253F400080B500AF0B21024894
:1040D000024B984700BF80BD00120E40253F4000B4
:1040E00080B500AF0C210248024B984700BF80BD4D
:1040F00000140E40253F400080B500AF0D2102485E
:10410000024B984700BF80BD00160E40253F40007F
:1041100080B485B000AF78601D491D4B1B6B23F048
:1041200070027B6813430B634FF40063FB6007E08E
:10413000FB68002B01D1012323E0FB68013BFB60FE
:10414000134B9B6E03F00803002BF1D0104A104B69
:104150001B6B23F0030343F0020313634FF400636C
:10416000FB6007E0FB68002B01D1012309E0FB683D
:10417000013BFB60064B9B6E03F00803002BF1D064
:10418000002318461437BD465DF8047B704700BF16
:1041900000040E4080B483B000AF78607B68012BD0
:1041A00007D1084A074B9B6843F0254343F480132B
:1041B0009360044B044A1A6000BF0C37BD465DF89B
:1041C000047B704710180E40080000A580B400AFB3
:1041D000094B5B6903F08003002B07D0074B9B6EF4
:1041E00003F08003002B01D0012300E000231846D8
:1041F000BD465DF8047B704710180E4000040E4069
:1042000080B483B000AF7860184A184B1B6A43F43F
:104210005C1343F00803136200BF144B9B6E03F45E
:104220000033002BF9D01149104B1B6A23F45C13A7
:1042300023F070037A68134343F45C130B6200BFEE
:104240000A4B9B6E03F40033002BF9D0074A074B4F
:104250001B6A23F09B7323F4803343F45C131362D3
:1042600000BF0C37BD465DF8047B704700040E406C
:1042700080B483B000AF786039607B68002B08D0D1
:104280001649164B1B6A164A1A40164B13430B620B
:104290001EE01249114B1B6A23F45C1323F0030345
:1042A0003A68120292B2134343F45C1343F00103E1
:1042B0000B6200BF094B9B6E03F00103002BF9D08A
:1042C000064A064B1B6A43F09B7343F48033136228
:1042D00000BF0C37BD465DF8047B704700040E40FC
:1042E000FCFFC8FE0200370180B400AF044B9B6E98
:1042F00003F480331846BD465DF8047B704700BF69
:1043000000040E4080B400AF044B4FF000529A629C
:1043100000BFBD465DF8047B704700BF00040E403F
:1043200080B400AF044B9B6E03F002031846BD46F9
:104330005DF8047B704700BF00040E4080B483B07A
:1043400000AF78607B682F2B01D901232FE07B68B9
:104350001F2B13D8194B9A6901217B6801FA03F3CB
:104360001A4001217B6801FA03F39A421ED0134AD6
:1043700001217B6801FA03F3136117E07B68203B9E
:104380007B600E4BD3F8082101217B6801FA03F30F
:104390001A4001217B6801FA03F39A4206D0074ACA
:1043A00001217B6801FA03F3C2F8003100231846AB
:1043B0000C37BD465DF8047B704700BF00040E401B
:1043C00080B483B000AF78607B682F2B01D90123C4
:1043D0002FE07B681F2B13D8194B9A6901217B684A
:1043E00001FA03F31A4001217B6801FA03F39A42B0
:1043F0001ED1134A01217B6801FA03F3536117E0D0
:104400007B68203B7B600E4BD3F8082101217B6841
:1044100001FA03F31A4001217B6801FA03F39A427F
:1044200006D1074A01217B6801FA03F3C2F804317F
:10443000002318460C37BD465DF8047B704700BF6B
:1044400000040E4080B400AF094B1B78DBB2002B98
:1044500014BF01230023DBB283F00103DBB203F0BE
:104460000103DBB21846BD465DF8047B704700BF10
:10447000406C002080B582B000AF78607868034B54
:10448000984700BF0837BD4680BD00BF3D43400090
:1044900080B582B000AF78601320034B984700BF0F
:1044A0000837BD4680BD00BF7544400080B483B06E
:1044B00000AF786039607B685B6823F470227B68AA
:1044C0005A607B685A683B681B0403F470231A43E4
:1044D0007B685A6000BF0C37BD465DF8047B7047AF
:1044E00080B483B000AF786039607B685B6823F08C
:1044F0007F427B685A607B685A683B681B061A4398
:104500007B685A6000BF0C37BD465DF8047B70477E
:1045100080B485B000AFF860B9607A607B68002B2A
:104520000CD0FB68BA680C3253F8223043F001011A
:10453000FB68BA680C3243F822100BE0FB68BA68DB
:104540000C3253F8223023F00101FB68BA680C32B8
:1045500043F8221000BF1437BD465DF8047B704756
:1045600080B485B000AFF860B9607A607B68002BDA
:104570000CD0FB68BA680C3253F8223043F00201C9
:10458000FB68BA680C3243F822100BE0FB68BA688B
:104590000C3253F8223023F00201FB68BA680C3267
:1045A00043F8221000BF1437BD465DF8047B704706
:1045B00080B485B000AFF860B9607A607B68042B86
:1045C00018D1FB68BA680C3253F8223023F0080186
:1045D000FB68BA680C3243F82210FB68BA680C32E8
:1045E00053F8223043F00401FB68BA680C3243F8F8
:1045F00022102AE07B68002B18D1FB68BA680C32C5
:1046000053F8223023F00801FB68BA680C3243F8F3
:104610002210FB68BA680C3253F8223023F00401F0
:10462000FB68BA680C3243F822100EE07B68082B56
:104630000BD1FB68BA680C3253F8223043F0080102
:10464000FB68BA680C3243F8221000BF1437BD462D
:104650005DF8047B704780B485B000AFF860B96046
:104660007A60FB68BA680C3253F8223023F0F0010C
:10467000FB68BA680C3243F82210FB68BA680C3247
:1046800053F822207B6842EA0301FB68BA680C32C7
:1046900043F8221000BF1437BD465DF8047B704715
:1046A00080B485B000AF786039603A687B681344A5
:1046B0005A1E7B68B2FBF3F3FB60FB68002B02DD44
:1046C000FB68FF2B02DD4FF0FF3301E0FB681BB2FC
:1046D00018461437BD465DF8047B704780B485B03A
:1046E00000AFF860B9601346FB71FB79002B02D173
:1046F0004FF0FF331BE0FB68BA680C3253F82230EE
:1047000023F47F41FB68BA680C3243F82210FB683F
:10471000BA680C3253F82220FB791B029BB242EAA2
:104720000301FB68BA680C3243F8221000231846D4
:104730001437BD465DF8047B704780B485B000AF88
:10474000F860B96011461A460B46FB711346BB71FF
:10475000FB68BA680C3253F8223099B2FB68BA6829
:104760000C3243F82210FB68BA680C3253F822204E
:10477000FB791B0403F47F03B97909060B4342EA72
:104780000301FB68BA680C3243F8221000BF1437EB
:10479000BD465DF8047B704780B485B000AF78609B
:1047A00039600023FB607B68AC221A603B681A68A2
:1047B0003B685B68B2FBF3F31B09FB60FB68002BF3
:1047C00003D0FB68B3F5803F01D301230FE07B6882
:1047D000FA681A623B689A687B685A607B6840F2A4
:1047E0000222C3F820217B6850221A600023184659
:1047F0001437BD465DF8047B704780B483B000AFCA
:1048000078600B46FB707B685B6903F00203002B4A
:1048100001D1012303E0FA787B68DA6100231846AE
:104820000C37BD465DF8047B704780B483B000AFA1
:10483000786039607B685B6903F00103002B01D16C
:10484000012305E07B689B69DAB23B681A7000239C
:1048500018460C37BD465DF8047B704780B483B0C2
:1048600000AFEFF310837B607B68002B0CBF01234C
:104870000023DBB23B6072B6BFF35F8F044B0022B4
:104880001A703B6818460C37BD465DF8047B7047CC
:10489000C200002080B483B000AF78607B68002B3A
:1048A00014BF01230023DBB218460C37BD465DF868
:1048B000047B704780B582B000AF78607868074BA2
:1048C00098470346002B05D0054B01221A70BFF311
:1048D0005F8F62B600BF0837BD4680BD9548400077
:1048E000C200002080B584B000AF0346FB71FB79A5
:1048F0000A4AD35CFF2B00D1FEE7094B9847F860CA
:10490000FB79064AD25C0132D1B2044AD154F8682C
:10491000044B984700BF1037BD4680BD80B50020CE
:104920005D484000B548400080B584B000AF034604
:10493000FB71FB790A4AD35C002B00D1FEE7094BDF
:104940009847F860FB79064AD25C013AD1B2044A32
:10495000D154F868044B984700BF1037BD4680BD5E
:1049600080B500205D484000B548400080B582B069
:1049700000AF0346FB71FB7983F00103DBB2002B30
:1049800006D00D4B1B78002B02D002200B4B984712
:10499000FB79002B09D0084B1B7883F00103DBB2B5
:1049A000002B02D00220064B9847034AFB79137074
:1049B00000BF0837BD4680BD416C0020294940003A
:1049C000E548400080B500AF664B9847034683F04A
:1049D0000103DBB2002B0CD0634BDB6903F4807363
:1049E000002B06D172B6BFF35F8F604B00221A70A6
:1049F000B7E023205E4B98475B4B9B6903F4006351
:104A0000002B0ED0584BDB6903F40063002B08D059
:104A1000554B4FF400621A62564B9847564B9847D5
:104A20009DE0564B98470346002B40F09580544B31
:104A300098470346002B40F091804B4B9B6903F451
:104A40000053002B05D0484BDB6903F40053002BC7
:104A500017D1454B9B6903F40073002B05D0424BE3
:104A6000DB6903F40073002B0BD13F4B9B6903F40C
:104A70008063002B1FD03C4BDB6903F48063002B69
:104A800019D0394B4FF418521A62374B4FF4185261
:104A90005A6101203B4B98473B4B9847324B4FF4B0
:104AA00080721A62304B4FF480721A612E4B4FF4B1
:104AB00000621A6153E02C4B9B6903F48073002B56
:104AC00022D0294BDB6903F48073002B1CD0264BCA
:104AD0004FF480721A62244B4FF480725A61224B59
:104AE0004FF400521A61204B4FF400721A611E4BB2
:104AF0004FF480621A612320244B98470020214BF9
:104B00009847234B98472AE0174BDB6903F48053FF
:104B1000002B25D0144B4FF480521A621D4B98473E
:104B20001D4B9847104A104B5B6823F001035360FC
:104B30000D4A0D4B5B6823F002035360174B9847F7
:104B4000174B9847084B4FF480721A61064B4FF48D
:104B500000621A6100BF02E000BF00E000BF00BFBA
:104B600000BF80BD4544400000400840C200002016
:104B70003D4340009D1F4000E1624100395D40001F
:104B8000916340006D494000D1624100C143400043
:104B9000C1624100E15D4000491F4000895540006D
:104BA0003156400080B483B000AF0346FB71154A14
:104BB000144B5B6823F001035360124A114B9B684E
:104BC00023F480739360FB79002B15D00D490D4BB6
:104BD0009B6823F07F02FB7903F07F0313438B6014
:104BE000084A084B9B6843F480739360054A054B61
:104BF0005B6843F00103536000BF0C37BD465DF8AE
:104C0000047B70470040084080B400AF094B5B68EC
:104C100003F00103002B06D0064B9B68DBB203F0C8
:104C20007F03DBB200E000231846BD465DF8047B3D
:104C3000704700BF0040084080B400AF054B1B68C0
:104C40009BB2C3F30A039BB21846BD465DF8047BD2
:104C5000704700BF0040084080B483B000AF786068
:104C60000B467B80054A7B689360044A7B8893816E
:104C700000BF0C37BD465DF8047B704798B5002037
:104C800080B487B000AF0346FB710B46BB7113467F
:104C9000BB80FB7903F08003002B14BF01230023AA
:104CA000FB75BB7903F00303012B0CBF0123002329
:104CB000BB75FB7903F00F03FB71FB79022B01D964
:104CC0000023CAE0684AFB790C3352F8233003F41E
:104CD0000043002B01D00023BFE0BB7D002B07D099
:104CE000FB79002B02D0FB79032B01D10023B4E028
:104CF000BA88FB79042B02D0FB79052B02D14FF443
:104D0000007300E040239A4201DD0023A5E0FB7917
:104D10005A1E13469B0013449B00544A13443B61A4
:104D2000BB88C3F3090399B23A69138A61F3090393
:104D300013823A69537C6FF3C71353743A69537CF7
:104D40006FF345135374FB7D002B04D03A69537CF9
:104D50006FF3830353744449434B9A6AFB790120F0
:104D600000FA03F313438B6200BF3F4B9A6AFB794F
:104D7000012101FA03F31340002BF6D03A493A4BD4
:104D80009A6AFB79012000FA03F3DB4313408B623C
:104D9000354AFB790C3352F82330FB60FB6843F053
:104DA0004F03FB60FB6823F4074323F08003FB60A1
:104DB000FB7D002B0DD0BB791B0203F4407343F441
:104DC000806303F4E06343F4004248F280731340CD
:104DD00008E0BB791B0203F4407343F4004248F23D
:104DE00080731340FA681343FB601F49FB79FA682C
:104DF0000C3341F8232000BF1B4AFB790C3352F8D7
:104E00002320FB7D002B0AD0BB791B0203F44073E7
:104E100043F4806303F4E06343F4004305E0BB79AB
:104E20001B0203F4407343F400431A40FB7D002B44
:104E30000AD0BB791B0203F4407343F4806303F48C
:104E4000E06343F4004305E0BB791B0203F44073C5
:104E500043F400439A42CFD1012318461C37BD4684
:104E60005DF8047B704700BF00400840486C00209C
:104E700080B584B000AF0346FB71FB7903F00F03EC
:104E8000FB73FB7B022B22D8134AFB7B0C3352F8BB
:104E90002330BB60BB6843F04F03BB60BB6823F4A7
:104EA0000043BB600C49FB7BBA680C3341F82320FC
:104EB00000BF094AFB7B0C3352F8233003F4004354
:104EC000002BF6D1FB791846044B984700E000BF51
:104ED0001037BD4680BD00BF00400840255E400041
:104EE00080B485B000AF0346FB71FB7903F00F037C
:104EF000FB73FB7B5A1E13469B0013449B00134A13
:104F00001344BB60FB7B022B01D9002317E0BB6875
:104F10005B7C03F02003DBB2002B0AD10C4AFB7947
:104F200003F00F030C3352F8233003F02803002B57
:104F300001D0012300E0002303F00103DBB2184697
:104F40001437BD465DF8047B704700BF486C0020F5
:104F50000040084080B586B000AF0346FB71FB7986
:104F600003F08003002B14BF01230023FB75FB79A2
:104F700003F00F03BB75BB7D5A1E13469B00134401
:104F80009B002D4A13443B61BB7D022B01D90023BA
:104F90004DE02A4B9847F860FB7D002B1FD0284A34
:104FA000BB7D0C3352F8233003F01003002B06D1E5
:104FB0003B695B7CC3F38103DBB2012B0FDD3A69F4
:104FC000537C43F0200353741D4ABB7D012101FA39
:104FD00003F31361F8681B4B9847012327E0184A35
:104FE000BB7D0C3352F82330BB60BB6843F04F03EA
:104FF000BB60BB6843F02003BB601149BB7DBA684E
:105000000C3341F8232000BF0D4ABB7D0C3352F80E
:10501000233003F02003202BF6D1094ABB7D012168
:1050200001FA03F31361F868064B98470123184609
:105030001837BD4680BD00BF486C00205D48400069
:1050400000400840B548400080B586B000AF034638
:10505000FB71FB7903F00F03FB71FB79022B01D984
:1050600000237FE0FB795A1E13469B0013449B00EC
:105070003E4A13447B617A69537C6FF34513537442
:105080003B4AFB790C3352F8233003F02003002B0A
:1050900067D0374AFB790C3352F823303B613B69C8
:1050A00043F04F033B613B6923F020033B613049F0
:1050B000FB793A690C3341F8232000BF2C4AFB7975
:1050C0000C3352F8233003F02003002BF6D128498B
:1050D000274B9A6AFB79012000FA03F313438B6292
:1050E00000BF234B9A6AFB79012101FA03F31340B5
:1050F000002BF6D01E491E4B9A6AFB79012000FA5C
:1051000003F3DB4313408B62194AFB790C3352F8EB
:105110002330FB60FB6843F04F03FB60FB6823F028
:105120000803FB601249FB79FA680C3341F823202D
:1051300000BF0F4AFB790C3352F8233003F0080309
:10514000002BF6D17B695B7C03F01003DBB2002BF4
:1051500007D07A69537C6FF3041353747B691B681F
:105160009847012318461837BD4680BD486C00207B
:105170000040084080B588B000AFBA607B6003464D
:10518000FB730B46BB73FB7B03F08003002B14BF48
:1051900001230023FB77FB7B03F00F03FB73FB7BF7
:1051A000022B01D9002383E0FB7B5A1E13469B0090
:1051B00013449B00404A1344BB61404AFB7B0C33C1
:1051C00052F8233003F40043002B0FD0BB695B7C03
:1051D00003F02003DBB2002B08D1384AFB7B0C33F1
:1051E00052F8233003F02003002B01D000235FE0AE
:1051F000334B98477861BB695B7C03F01003DBB2EB
:10520000002B04D078692F4B9847002350E0BA69EF
:10521000537C43F01003537478692A4B9847BB6959
:10522000BA685A60BB697A689A60BB690022DA6022
:10523000BB69BA6A1A60BB7B002B02D17B68002B6A
:1052400001D1012300E00023DBB203F00103D9B256
:10525000BA69537C61F386135374BA69537C6FF354
:10526000C7135374164B98477861144AFB7B01218E
:1052700001FA03F31361FB7F002B15D00F4AFB7B70
:105280000C3352F8233003F01103002B0CD1FB7BBD
:10529000012118460C4B98470346002B04D0FB7B9A
:1052A00000211846084B98477869064B9847012318
:1052B00018462037BD4680BD486C0020004008409D
:1052C0005D484000B54840007D61400080B588B031
:1052D00000AF0346FB71FB7903F08003002B14BF82
:1052E00001230023FB77FB7903F00F03FB71FB79AC
:1052F000022B00F2E980764B9847B861754AFB793A
:10530000012101FA03F35361B869734B9847FB7F9E
:10531000002B00F0AE806F4AFB790C3352F823303B
:1053200003F01003002B73D0FB79002B52D0FB79D4
:10533000032B4FD0674AFB790C3352F823307B6143
:105340007B6943F04F037B617B6923F010037B6132
:105350006049FB797A690C3341F8232000BF5D4A2C
:10536000FB790C3352F8233003F01003002BF6D1F5
:1053700000BF584AFB790C3352F8233003F0100376
:10538000002BF6D1534AFB790C3352F823303B61A2
:105390003B6943F04F033B613B6943F010033B61C2
:1053A0004C49FB793A690C3341F8232000BF494A44
:1053B000FB790C3352F8233003F01003102BF6D195
:1053C00000BF444AFB790C3352F8233003F010033A
:1053D000002BF6D03F4AFB790C3352F82330FB60A8
:1053E000FB6843F04F03FB60FB6823F01003FB6096
:1053F0003849FB79FA680C3341F8232000BF354A5D
:10540000FB790C3352F8233003F01003002BF6D154
:10541000304AFB790C3352F82330BB60BB6843F051
:105420004F03BB60BB6823F00103BB602949FB79D4
:10543000BA680C3341F8232000BF264AFB790C33AD
:1054400052F8233003F00103002BF6D1FB795A1EEA
:10545000224913469B0013449B000B4403F11002A6
:1054600053786FF3830353700CE0FB7918461C4BA1
:105470009847184AFB790C3352F8233003F0420363
:10548000002BF2D11349134B9A6AFB79012000FAE1
:1054900003F313438B6200BF0E4B9A6AFB79012121
:1054A00001FA03F31340002BF6D00A49094B9A6A1C
:1054B000FB79012000FA03F3DB4313408B62FB7995
:1054C0001846084B984700E000BF2037BD4680BD16
:1054D0005D48400000400840B5484000486C00204E
:1054E000D55E4000255E400080B584B000AF034625
:1054F0003960FB71FB7903F00F03FB71FB79022B21
:1055000001D9002338E0FB795A1E13469B0013444F
:105510009B001B4A1344FB601A4AFB790C3352F878
:10552000233003F40043002B01D1002324E0FB6867
:105530005B7C03F01003DBB2002B01D000231BE0E7
:10554000104AFB790C3352F8233003F02003002B70
:1055500006D1FB685B7C03F02003DBB2002B08D094
:10556000FA68537C43F010035374FB683A681A607E
:1055700001E03B689847012318461037BD4680BDBF
:10558000486C00200040084080B584B000AF254A38
:10559000244B9B6843F480739360224A214B9B68A1
:1055A00023F07F0393601F4B1B6BBB60BB6843F012
:1055B0004F03BB60BB6823F4074323F08003BB6049
:1055C000BB6843F40043BB60164ABB68136300BF6B
:1055D000144B1B6B03F40043B3F5004FF8D1114B90
:1055E0001B6B7B607B6843F04F037B607B6843F4FD
:1055F00000437B600B4A7B68136300BF094B1B6B46
:1056000003F40043B3F5004FF8D1074B9847F86017
:10561000044B01221A61F868044B984700BF103709
:10562000BD4680BD004008405D484000B548400090
:1056300080B400AF084B00221A61074B00225A6168
:10564000054B00229A81054B00221A7000BFBD460F
:105650005DF8047B704700BF98B50020426C0020C5
:1056600080B586B000AF634B1B78002B03D0624B34
:105670009847624B9847624B1B6B1B0CC3F30A03A2
:10568000082B17D05E4B1B6B3B613B6943F04F030C
:105690003B613B6923F004033B61594A3B69136357
:1056A00000BF574B1B6B03F00403002BF9D1554B84
:1056B00098479BE00023FB7509E0FB7D524A1344A9
:1056C0004F4A126DD2B21A70FB7D0133FB75FB7D20
:1056D000072BF2D94C4B5A884B4B5A804A4B9A882D
:1056E000494B9A80484BDA88474BDA80474B9847BA
:1056F000034683F00103DBB2002B17D0404B1B6B3A
:10570000FB60FB6843F04F03FB60FB6823F004037E
:10571000FB603B4AFB68136300BF394B1B6B03F014
:105720000403002BF9D1374B98475FE0364B1B78C9
:105730005BB2002B35DA324B1B6BBB60BB6843F0AE
:105740004F03BB60BB6843F08003BB602C4ABB685F
:10575000136300BF2A4B1B6B03F08003802BF9D12E
:10576000274B1B6B7B607B6843F04F037B607B6840
:1057700023F004037B60224A7B68136300BF204B45
:105780001B6B03F00403002BF9D1214B00221A807C
:10579000204B00221A80174B02221A701E4B98478A
:1057A00024E0174B1B6B3B603B6843F04F033B60AF
:1057B0003B6823F004033B60114A3B68136300BF5E
:1057C0000F4B1B6B03F00403002BF9D10E4BDB884E
:1057D000002B02D1114B984708E00D4B00221A8094
:1057E0000C4B00221A80034B01221A701837BD4659
:1057F00080BD00BF426C00201D5D4000315640005E
:10580000004008406D5C400098B500201928400019
:10581000446C0020466C002021584000B95C4000D8
:1058200080B588B000AF714B1B78032B19D1704B3A
:105830001B6B3B613B6943F04F033B613B6923F0CA
:1058400001033B616A4A3B69136300BF684B1B6BF2
:1058500003F00103002BF9D1664B9847664B98473C
:10586000C1E0664B9A89664B1B88D31AFB83FB8B7E
:10587000002B3CD1634B1A88614B1B8813449AB2AE
:10588000604B1A805D4BDA885E4B1B889A4203D0CE
:105890005D4B1B78002B17D05C4B9847544B1B6B10
:1058A000FB60FB6843F04F03FB60FB6823F00103E0
:1058B000FB604F4AFB68136300BF4D4B1B6B03F04B
:1058C0000103002BF9D18EE04C4B5B69002B0ED00D
:1058D0004A4B5B699847034683F00103DBB2002B18
:1058E00005D1474B00221A80444B9B89FB83FB8BDD
:1058F0003F2B05D94023FB83434B00221A7002E063
:10590000414B01221A703D4B9B683D4A128813445B
:10591000BB613F4B98477861354B1B6B03F002032B
:10592000002B1BD078693B4B9847304B04221A70F0
:105930002F4B1B6BBB60BB6843F04F03BB60BB6866
:1059400023F00103BB602A4ABB68136300BF284BE6
:105950001B6B03F00103002BF9D144E000237B779C
:1059600008E02349BB695A1CBA611B780B657B7F31
:1059700001337B777B7F9BB2FA8B9A42F1D8204B25
:105980001A88FB8B13449AB21D4B1A80184B1B6B61
:105990007B607B6843F04F037B607B6843F01003C0
:1059A0007B60134A7B68136300BF114B1B6B03F0D2
:1059B0001003102BF9D10E4B1B6B3B603B6843F07F
:1059C0004F033B603B6823F001033B60084A3B68A0
:1059D000136300BF064B1B6B03F00103002BF9D1CF
:1059E00078690C4B98472037BD4680BD426C00203B
:1059F000004008401D5D40003156400098B5002031
:105A0000466C0020446C0020706C0020055D400056
:105A10005D484000B548400080B588B000AF8A4B73
:105A20001B78012B24D0884B1B78022B03D0864B8C
:105A30001B78042B02D1854B984701E0844B984793
:105A4000844B1B6B7B617B6943F04F037B617B69FC
:105A500023F002037B617F4A7B69136300BF7D4BA8
:105A60001B6B03F00203002BF9D17B4B9847E7E057
:105A7000784B1B6B1B0C9BB2C3F30A03BB83774BA6
:105A80009B891A46764B1B881946BB8B0B449A425E
:105A900005DA724B9A89724B1B88D31ABB836F4B02
:105AA0009B686F4A12881344BB610023FB7709E0AF
:105AB000BB695A1CBA61674A126DD2B21A70FB7F79
:105AC0000133FB77FB7F9BB2BA8B9A42F0D8644BD1
:105AD0001A88BB8B13449AB2614B1A80BB8B402B44
