S01900004558414D504C455F4652454552544F53312E7372656305
S214400000D0640120713D40006D3D40006D3D400094
S2144000106D3D40006D3D40006D3D400000000000DD
S214400020000000000000000000000000F19E4000BC
S2144000306D3D400000000000519F4000959F4000ED
S2144000406D3D40006D3D40006D3D40006D3D4000C3
S2144000506D3D40006D3D40006D3D40006D3D4000B3
S2144000606D3D4000F51F4000092040001D20400027
S21440007031204000452040006D3D40006D3D400031
S2144000806D3D40006D3D40006D3D40006D3D400083
S2144000906D3D40006D3D40006D3D40006D3D400073
S2144000A06D3D40006D3D40006D3D40006D3D400063
S2144000B06D3D40006D3D40006D3D40006D3D400053
S2144000C06D3D40006D3D40006D3D4000112B4000B1
S2144000D06D3D40006D3D40006D3D40006D3D400033
S2144000E06D3D40006D3D40006D3D40006D3D400023
S2144000F0F5A640006D3D400010B5054C237833B959
S214400100044B13B10448AFF300800123237010BDA5
S214400110A80A002000000000544441000C4B43B1A4
S2144001200C480D4910B5AFF300800C48036823B95E
S21440013010BD0A48036833B97047094B002BF7D007
S214400140BDE810401847064B002BF5D0184700BFB7
S2144001500000000054444100AC0A002054444100D2
S214400160000000004FF48002014B5A63704700BF06
S21440017000140E407047704770477047704770478E
S21440018070470000302822D82DE9F8430D469046A7
S2144001900B18302B1DD8F9B1124E06EB40264FF007
S2144001A00009114F7F2D94BF2C468024E2B24B4667
S2144001B0520231464046B84788B1E4B22C1BA5B23D
S2144001C006F50076002DEDD10020BDE8F88301202D
S2144001D070470120BDE8F8830020BDE8F883012081
S2144001E0BDE8F883C80A00205D0E4000034B1B782C
S2144001F0002B14BF02200020704700BFC40A002016
S214400200044B1B780BB1022070472F23036000205D
S214400210704700BFC40A0020002070470120704786
S214400220014B187001207047C40A002008B501220F
S214400230014B984708BD00BF8501400008B5002225
S214400240014B984708BD00BF8501400010B53E21D0
S21440025000200A4B98470A4CA0470028FCD0094B80
S2144002609847094A094B9A62094CA0470028FCD097
S2144002700320084B9847084B984710BDBD204000C8
S2144002801121400021214000013F0F2000040E4074
S21440029031214000E9214000F921400010B50E48C8
S2144002A00E4B98473E2100200D4B98470D4CA047DB
S2144002B00028FCD00C4B98470C4A0D4B9A620D4CCC
S2144002C0A0470028FCD010200B4B98470B4B984774
S2144002D00B48024B984710BD000E2707453F40008D
S2144002E0BD2040001121400021214000013F0F2049
S2144002F000040E403121400059204000393E400065
S21440030000D8B805084B1B685BB170B5064E4FF079
S214400310FF35064C29463068A0470028FAD0012011
S21440032070BD0020704700BFC86A00204DB1400035
S2144003300C4B1B680BB10120704710B503220021FF
S2144003400120094B9847074B186020B100231A46F6
S2144003501946064CA047034B1868003018BF0120CA
S21440036010BD00BFC86A002089AD4000DDAD40002A
S2144003700120704738B50446094B984770B14CB1D8
S214400380012400231A46194606480068064DA84729
S214400390204638BD054B98470446F2E70124F7E768
S2144003A005034000C86A0020DDAD4000ED01400076
S2144003B038B504460D460A4B984778B14CB10124EF
S2144003C000231A46194607480068074DA8472046A6
S2144003D038BD2846054B98470446F1E70124F6E722
S2144003E005034000C86A0020DDAD40000102400021
S2144003F070B505460E460A4B9847044658B165B94F
S2144004003046084B9847044600231A461946064885
S2144004100068064DA847204670BD0024F4E700BF9C
S2144004200503400021024000C86A0020DDAD4000C0
S21440043038B50546094B984770B1044645B1002388
S2144004401A46194606480068064DA847204638BD55
S214400450054B98470446F2E70124F7E705034000BA
S214400460C86A0020DDAD40001902400038B5054698
S214400470094B984770B1044645B100231A461946C1
S21440048006480068064DA847204638BD054B9847A5
S2144004900446F2E70124F7E705034000C86A002057
S2144004A0DDAD40001D0240000028024818BF002075
S2144004B0704700BFEC2B410070B504460D4616460B
S2144004C00C4B984710B90124204670BD0A4B9847FC
S2144004D054B10124094B984700231A461946084848
S2144004E00068084DA847EFE731462846064B984730
S2144004F00446EFE705034000790140007B014000D9
S214400500C86A0020DDAD40002D02400070B50446AC
S2144005100D4616460C4B984710B90124204670BD30
S2144005200A4B984754B10124094B984700231A4672
S214400530194608480068084DA847EFE73146284660
S214400540064B98470446EFE7050340007D01400010
S2144005507F014000C86A0020DDAD40003D024000FB
S21440056000207047003018BF0120034B187001224E
S214400570024B1A70704700BF42340120140000201E
S21440058010B582B0074B00931F23074A0121022073
S214400590064CA04708B102B010BD05490220054BE5
S2144005A09847F8E795094000F06A0020F139400086
S2144005B081054000D13C40002DE9F0410023144A1B
S2144005C01370144A13700123134A1370134A13709E
S2144005D0134B984728B90025124B1D702846BDE896
S2144005E0F081431E0F4A13700F4B9847054600286C
S2144005F0F4D00024A0460D4F0A4E41462046B84748
S2144006000134E4B23378A342F7D2094B9847E5E782
S214400610E66A0020E46A002014000020150000204E
S21440062071034000146B0020E5C24000F103400017
S2144006308105400008B5014B984708BD810540003C
S21440064010B582B0074B00930D23074A0021812046
S214400650064CA04708B102B010BD05498120054BA5
S2144006609847F8E73506400018000020F13940006A
S21440067041064000D13C400008B5064B1B7803B904
S21440068008BD0220044B984704490220044B984773
S214400690F6E700BFE46A002035384000790640009F
S2144006A0D13C400008B5064B1B7803B908BD8120F5
S2144006B0044B984704498120044B9847F6E700BF0F
S2144006C0E46A002035384000A5064000D13C400092
S2144006D008B5094B9B6843B1084B93F90C30002B87
S2144006E0B4BF81200220064B9847044B5A68024B01
S2144006F05A60044B984708BD18000020F06A002056
S2144007003538400041064000054B00221A605A60CA
S2144007109A60DA601A82F0221A700A22DA717047FA
S214400720186B002070B506460D461446084B984791
S2144007300122084B1A73084B9E70220EDA70220C68
S2144007401A71220A5A719C712A0A1A735D7370BD17
S2144007500907400018000020186B002008B500224A
S2144007604FF410510520014B984708BD250740001F
S21440077008B5094B1B7B594011F0800F03D1074B3E
S2144007809B68834205D2064B9847064B9847002005
S21440079008BD012008BD00BFF06A002018000020F8
S2144007A05D074000D106400008B5002211460420EF
S2144007B0014B984708BD00BF2507400010B582B0E2
S2144007C0074B00930B46024601218120054CA0476B
S2144007D008B102B010BD044B9847044B9847F8E761
S2144007E031084000F1394000A9074000D1064000DA
S2144007F008B500224FF420510620014B984708BD0B
S2144008002507400008B500224FF468510220014BEE
S214400810984708BD2507400008B5034B9847002277
S214400820024B1A7308BD00BF09074000180000209D
S21440083000B1704710B50C46044B9847044B996876
S214400840091B9960034B984710BD00BF190840002C
S21440085018000020D106400070B5234B00221A60D5
S2144008605A609A60DA601A610646A0B11F4BDD7D79
S2144008701F4A08241D4B5B7C03F03F031C2B0FD004
S2144008803F2B0DD0A54228BF254680212846194B30
S214400890984770B970BD154BDD7C174A0424E9E7CC
S2144008A01C2313700A2353700523D3700C34E4B210
S2144008B0E8E70E4B587B114B9847002814BF80231F
S2144008C0002366B1023CA4B20749220242EA14243D
S2144008D00C80CB7029460448094B9847DAE7024A11
S2144008E0013C14709370F5E7CC6A0020F06A002053
S2144008F0D46A002071074000D06A002031044000CE
S214400900BD07400010B50446C0B1184A184B597C84
S214400910D170997C9170D97C5170197D1170154AAF
S214400920997D5170DB7D13701088002C14BF802198
S21440093000214002104B984778B910BD0C4B587BAD
S2144009400E4B98470028E0D000224FF41C51072059
S2144009500B4B98470B4B984710BD0B4B1C70012216
S2144009600A4B1A700A4B9847E7E700BFE06A002038
S214400970F06A0020106B00207107400031044000F0
S21440098025074000D1064000E56A0020E66A0020C0
S2144009908DC24000002840F09081F8B51F2904D150
S2144009A0894B1A68894B9A4207D00122884B1A70A5
S2144009B0884B9847884B9847F8BD834B587B00F048
S2144009C00F005873854B1B78834264D37E4B9968DF
S2144009D0834A9160DB7B5A2B00F25881DFE813F0A4
S2144009E0BE0056015601600056015601560156019A
S2144009F056015601560156015601560156015601FA
S214400A0056015601700056015601560156015601D0
S214400A1056015601B6002D01560156013E015601BB
S214400A2056015601560156015601D300560156014D
S214400A304E015601520156015601560156014901D2
S214400A4056015601560156015601560156015601A9
S214400A505601560156015601560156015601560199
S214400A605601560156015601560156015601560189
S214400A705601560156015601560156015601560179
S214400A805601560156015601560156015601560169
S214400A9056015601BA00534B9847534B9847F8BDFA
S214400AA0494BDC7C122C28BF1224802120464F4B19
S214400AB0984700B9F8BD21464D484E4B9847F8BD7B
S214400AC0414BDC7C242C28BF242480212046474BE5
S214400AD098470028EED03C4B1B7C13F0030F02D106
S214400AE0394B5D7C25B13F4B98473F4B9847F8BD07
S214400AF0354B587B404B984700280CBF2B468023ED
S214400B003E4F7B70304B587B3D4B984707F1100665
S214400B10034653F8010F59689A68DB680FC63B7C5A
S214400B20002B00F0BD80222B00F0B980A6F10F010B
S214400B30012311F8012B002A00F0B280222A00F08F
S214400B40AF800133DBB2102BF3D1B1E000202D4B48
S214400B509847F8BD01202B4B9847F8BD2A4B98473D
S214400B60022808D0032803D040B1284B984707E016
S214400B70274B984704E0274B984701E0264B984779
S214400B80194B9847F8BD80210820184B98470028F5
S214400B9090D022490C4B587B214B984702280DD0C9
S214400BA0032806D000283DD0184B98470E4B984750
S214400BB0F8BD174B98470C4B9847F8BD154B9847D0
S214400BC0094B9847F8BD00BFF06A00205553424392
S214400BD0E46A002079064000A5064000146B002019
S214400BE0180000205D074000D10640007107400015
S214400BF0186B0020BD0740006D0440002800002010
S214400C00A90440005908400075034000A907400069
S214400C10F10740000508400019084000E86A002037
S214400C20B103400025484FF40033436003681BBAC5
S214400C3003600821224B9847F8BD224BDB7C13F01B
S214400C40020F04D1204B9847204B9847F8BD83F0BD
S214400C50010303F001011E4B9847F3E7194BDB7C79
S214400C6023B11C4B9847194B9847F8BD164B9847ED
S214400C70F9E7154B9847154B9847F8BD0120164B9A
S214400C809847F8BD0020144B9847F8BD00224FF413
S214400C9000510520114B98470C4B9847F8BD2B4602
S214400CA00F482021C21811740133DBB2102BF9D142
S214400CB021460B48024B9847F8BD7047E86A00202B
S214400CC0BD074000F06A002019084000D1064000E9
S214400CD0F10340005D07400005094000250740003D
S214400CE02800002008B50022044B1A700123044A4D
S214400CF01370044A1370044B984708BDE66A0020F8
S214400D001400002015000020F1C24000224B1B7842
S214400D1013F0800F05D103F06003202B1AD000207B
S214400D20704703F06003202B01D0002070471A4B19
S214400D305B78FE2B28D1184BDB88012B01D0002096
S214400D407047154B5B880BBB134B144A9A600120C7
S214400D5098817047104B5B78FF2B19D10E4BDB8880
S214400D60C3B90D4B5B880BB10020704710B50C4AD9
S214400D7013700C4A137002200B4CA0478120A047EA
S214400D800A4B9847012010BD00207047002070474E
S214400D90002070470020704754340120146B002018
S214400DA0E46A0020E66A00206D3B40008105400072
S214400DB010B51D4B1C78002C2ED000231A4A1370F9
S214400DC01A4A13701A4B1B78A3B11A4B1A881A4B3F
S214400DD019681A4B587B1A4B9847144B1B7803F0EC
S214400DE0FF0283B902281CD0032817D080B1154BC8
S214400DF098470FE00F4B1A880F4B19680F4B587BDC
S214400E00114B9847E9E70021084B1970144603E058
S214400E100E4B98470E4B9847204610BD0D4B9847B3
S214400E20F8E70D4B9847F5E7E66A002015000020E6
S214400E30E56A0020106B0020E06A0020F06A00207F
S214400E40B9044000A90740000D05400019084000BD
S214400E50D1064000F10740000508400030B583B099
S214400E601D4C247804F0FF05A4B114460A4600251C
S214400E7019490D70A84214BF812002206BB100931F
S214400E8023460021154DA8470546E8B1144B9A68FD
S214400E90121B9A60284603B030BD124B009323467F
S214400EA029460E4DA84778B10B4A1378002BFCD044
S214400EB00D4B1B786BB90A4B9A68121B9A600A4B0B
S214400EC01D7885F00105E5E70122034B1A700025E1
S214400ED0E0E70025DEE700BF14000020F1394000BF
S214400EE0180000206505400042340120104B1B6866
S214400EF01A6853881A4403781844904211D24378AB
S214400F00042B10D08B4209D003781844904206D266
S214400F104378042B09D08B42F6D107E07047002077
S214400F20704700207047002070470020704700BF81
S214400F30386B002008B5034B987800F07F00024BD2
S214400F40984708BD5434012031364000194B1B7871
S214400F504BB3194B1B681B681A79824225D970B46B
S214400F60164A13605C881C44A34220D20025012602
S214400F7007E0124A13600FE01A7813443546A3423E
S214400F800CD25A78042AF7D19A788242F4D1DA7889
S214400F908A42F1D1002DECD1012002E0074A1360CD
S214400FA0002070BC7047002070470020704700202B
S214400FB0F7E700BF346B0020386B00203C6B002006
S214400FC02DE9F84304460021134B9847804610B954
S214400FD04046BDE8F883114B1B685B6853F8249085
S214400FE0D9F80C309847014620460B4B9847804628
S214400FF00028EDD00A4B1C6805260A4D0A4F31469C
S2144010002046A847044610B18078B847F7E7D9F895
S21440101004309847DCE700BF4D0F4000386B002097
S2144010203C6B0020ED0E40009D3740002DE9F0411E
S2144010308046104B98470346C8B10F4B1C680526A0
S2144010400E4D0F4F31462046A847044638B1828899
S214401050C1788078B84703460028F3D107E0094BAB
S2144010601B685B6853F828301B6898470346184649
S214401070BDE8F0814D0F40003C6B0020ED0E400077
S214401080A5364000386B002008B5014B984708BD90
S2144010905D35400070B50D4B1B7883B10C4B1B681B
S2144010A01B681B795BB100240A4E094D2046B047A9
S2144010B00134E4B22B681B681B79A342F6D80022A1
S2144010C0024B1A700122044B1A8070BD346B00200C
S2144010D0386B0020C10F40002A6B002038B50D4BFE
S2144010E01B78B3B10C4B1B681A6812798AB100247E
S2144010F0094D06E00134E4B22B681A681279A24220
S21440110007D95B6853F824301B69002BF2D0984708
S214401110F0E738BD346B0020386B0020F8B58A4BBA
S21440112000229A811A615A611B7813F0800F14D1FD
S21440113013F0600F00F0D980834B1B7803F01F0339
S214401140012B00F07081804B1B7803F01F03022BAD
S21440115000F0CB8100231846F8BD7B4AD288002A8F
S21440116000F0EC8113F0600FE6D113F01F0306D1B8
S21440117075494978062914D0082977D051B1012BF2
S2144011807CD0022BD8D1704B5B78002B00F09F8030
S21440119000238CE1022AD6D102216C486C4B98473A
S2144011A0BFE0694B5A88130A013B0E2B00F27C8144
S2144011B0DFE813F00F001D0037007A017A017A014C
S2144011C07A017A017A017A017A017A017A017A0102
S2144011D02F00604B186801785D4B98475A4BDA8869
S2144011E09B89934240F29D80574B9A8199E0D2B2B8
S2144011F0584B1B685B7C9342A5D9564B5B6853F8AB
S21440120032004188524B98474F4B9B6802225A7097
S214401210E4E7504B9868002895D041884C4B984757
S214401220DCE7D2B2032A87D8DFE812F007000C00CA
S2144012308C0104000C21484A06E004214748444BF0
S2144012409847CBE7464A0921013A4648002312F818
S214401250014F20F8024F0133DBB29942F7D84900DC
S2144012600231404801703A4B9847B7E7012A7FF46D
S2144012706AAF01213C48364B984752E0324949789C
S2144012800A297FF47EAF012A40F0CD80364B1B788A
S214401290002B00F0C8802C4B1C79344B1D682B6803
S2144012A01B79A34240F2BF8000212046304B98472E
S2144012B000283FF441AF6B6853F82430DB6898470A
S2144012C02C4B187001211846214B984729E0022ADA
S2144012D07FF439AF1C4B1879274B9847274B18801B
S2144012E0022118461A4B98471BE013F01F0340F0A4
S2144012F08380154A5278013A082A7DD8DFE812F0F2
S21440130013007C00D6007C0009007C007C007C003A
S21440131042000D4BDB88002B7FF415AF184A0A4B72
S2144013201A61012317E7084BDB88002B7FF40BAFCD
S214401330054B5B88012B7FF406AF044A138823F0E5
S21440134002031380EDE700BF543401202A6B0020CF
S214401350993640004C000020082C4100B400002084
S214401360B800002098000020346B0020386B002026
S2144013704D0F4000306B0020F53740002C6B0020AE
S214401380350F4000714BDB88002B7FF4DCAE704B92
S214401390984700283FF4D0AE6C4B9A786D4B1B684C
S2144013A05B7C9A423FF7C8AE6B4B9847674B9B783F
S2144013B06A4A1370002BB4D003F10053013B654AD0
S2144013C0526802EBC3006649086052F833301B7916
S2144013D0002BA6D000242646624D0F4631462046B6
S2144013E0A84700283FF4A8AE0134E4B23B681B6827
S2144013F01B79A342F2D894E7012B0AD0022B7FF444
S2144014009BAE524B5B78012B2BD0032B39D000235D
S2144014104DE04E4A52780B2AF0D14C4BDB8813B93C
S2144014204E4B1B7873B94D4B1B78002B00F08880D1
S214401430464B1C794A4B1D682B681B79A3423AD809
S214401440002388E6414B1C795D882046464B9847EA
S21440145000283FF471AEE9B22046424B9847034617
S21440146025E03A4BDB88002B7FF46DAE374B5B882C
S214401470002B7FF468AE354B18793C4B98470346B3
S21440148015E0324BDB88002B7FF45DAE2F4B5B883C
S214401490002B7FF458AE2D4C2079354B9847207959
S2144014A0344B9847034602E0002300E00023002B1D
S2144014B07FF451AE40E6002120462F4B9847002847
S2144014C03FF441AE6B6853F82450EB6898470146AA
S2144014D02046294B984700283FF435AEAB689847DE
S2144014E0034600287FF437AE2DE61C4B1B780BB323
S2144014F01B4B1A6813681B79F3B100241E4E184F15
S214401500536853F82450EB68984701462046B04746
S214401510034600283FF41FAEAB68984703460028B2
S2144015207FF419AE0134E4B23A6811680979A142F1
S214401530E6D810E600230EE600230CE600230AE673
S214401540002308E603210D4A7EE600BF54340120FE
S2144015506D3640004C00002095104000346B002053
S214401560386B00202D104000C10F40001939400054
S2144015706D3B4000353840004D0F4000C400002011
S2144015802DE9F04180B90C469046002A0FDD8F18B1
S214401590084E094D306821462B6898470134BC42B6
S2144015A0F8D14046BDE8F0814FF0FF38F9E7804675
S2144015B0F7E700BF4C3401204434012001380228AC
S2144015C015D82DE9F0410E4614469AB10D46DFF87F
S2144015D038800C4FD8F8000015F8011B3B68984738
S2144015E000280ADBA81B013CF4D1BDE8F0814FF08F
S2144015F0FF3070471046BDE8F0814FF0FF30BDE841
S214401600F08100BF483401204C34012038B54FF4F7
S2144016100044AE4B5C600920AD4DA8470A20A84761
S2144016200B20A8470C20A8470D20A847A94B4FF4ED
S21440163080021A61C3F8A0201A63A74A04215161A8
S214401640C2F8A0105166C2F8901051651162C2F8F7
S2144016508410106F20F004001067506F20F00400D4
S2144016605067C2F8C010C2F8D410C2F8B0104FF499
S214401670C0601066C2F8900050655062C2F88000A4
S214401680156F25F4C0651567556F25F4C065556719
S21440169050604FF480421A66C3F890205A655A62EA
S2144016A0C3F88020186F20F480401867586F20F4E5
S2144016B0804058675A6001221A66C3F890205A65DF
S2144016C05A62C3F88020186F20F001001867586FE0
S2144016D020F0010058675A6002221A66C3F890202C
S2144016E05A655A62C3F88020186F20F002001867C7
S2144016F0586F20F0020058675A604FF480321A66DE
S214401700C3F890205A655A62C3F88020186F20F4B8
S21440171080301867586F20F4803058675A601C66CF
S214401720C3F890405C655C62C3F880401A6F22F450
S21440173000421A675A6F22F400425A675C600822D9
S2144017401A66C3F890205A655A62C3F88020186F0C
S21440175020F008001867586F20F0080058675A6055
S2144017601966C3F8901059655962C3F880101A6F0D
S21440177022F004021A675A6F22F004025A67596030
S2144017804FF480521A66C3F890205A655A62C3F8DE
S2144017908020196F21F480511967596F21F48051C8
S2144017A059675A604FF400621A66C3F890205A652B
S2144017B05A62C3F88020196F21F400611967596F87
S2144017C021F4006159675A6040221A66C3F8902097
S2144017D05A655A62C3F88020196F21F04001196794
S2144017E0596F21F0400159675A6020221A66C3F8A3
S2144017F090205A655A62C3F88020196F21F0200164
S2144018001967596F21F0200159675A6080221A667D
S214401810C3F890205A655A62C3F88020196F21F0A9
S21440182080011967596F21F0800159675A6010226C
S2144018301A66C3F890205A655A62C3F88020196F1A
S21440184021F010011967596F21F0100159675A604D
S2144018504FF480621A66C3F890205A655A62C3F8FD
S2144018608020196F21F480611967596F21F48061D7
S21440187059675A604FF400521A66C3F890205A656A
S2144018805A62C3F88020196F21F400511967596FC6
S21440189021F4005159675A604FF480721A66C3F8B3
S2144018A090205A655A62C3F88020196F21F48071DF
S2144018B01967596F21F4807159675A604FF4007266
S2144018C01A66C3F890205A655A6207E050180E40D0
S2144018D04121400000140E40000E0E40C3F8802008
S2144018E0196F21F400711967596F21F40071596717
S2144018F05A604FF080525A61C3F8A02038BD00BFEE
S214401900F0B583B004460F461646036843F010030E
S214401910036001AB0122364DA84758B9019B13F02E
S214401920040F0DD1236823F010032360FF231846CD
S21440193003B0F0BD0346226822F010022260F6E7AC
S2144019402EB9236823F0100323603346EFE76B4637
S2144019501E2239462046264DA847034650B9019ACE
S21440196012F4805F0BD0009911F0050F0CBF0121D7
S214401970002105E0226822F010022260D7E701210C
S21440198012F4005F03D0009810F0020F27D112F433
S214401990006F03D0009A12F0010F11D191B10122CD
S2144019A0616841F001016160A2B1626842F00202E2
S2144019B06260226822F010022260B8E71A46EFE71B
S2144019C01A4600E00122616821F001016160EBE700
S2144019D01A46F8E7626822F002026260E9E712F40B
S2144019E0006FEBD0009A12F0010FF1D11A46D7E7FC
S2144019F00D1D40002DE9F04182B004460D460368B7
S214401A0043F01003036001AB00225D4EB04740B187
S214401A100346226822F010022260184602B0BDE853
S214401A20F081019B23F4B04343F48063019300228A
S214401A3029462046534EB047034620B1226822F03E
S214401A4010022260E9E740F2E113042229462046CC
S214401A504C4EB047034620B1226822F01002226066
S214401A60DBE701AB002229462046454EB0470346F9
S214401A7020B1226822F010022260CEE7019B43F498
S214401A80445301930022294620463E4EB047034623
S214401A9020B1226822F010022260BEE7019B23F4A8
S214401AA0806343F400730193002229462046354E56
S214401AB0B0470346B0B9344E4FF00108304F01AB43
S214401AC0424629462046B847034680B9019B13F054
S214401AD0200F11D1013EF2D1236823F0100323607A
S214401AE001239AE7226822F01002226095E72268D6
S214401AF022F01002226090E76B46052229462046D7
S214401B001F4DA847034680B9009A12F4807F13D130
S214401B1012F0400F2CD112F0800F08BF024609D1B8
S214401B20616821F0010161600BE0226822F010023A
S214401B30226072E7024600E00122616841F001013E
S214401B406160BAB1626842F002026260E26842F0E6
S214401B500102E2600D4A116841F008011160116807
S214401B6041F004011160226822F01002226054E71E
S214401B700122D5E7626822F002026260E6E700BF13
S214401B800D1D40006D1D400040420F0000400340C8
S214401B902DE9F04383B005468946036843F01003B9
S214401BA003604FF4004302AE46F8043D00220E4C5C
S214401BB0A0470A244FF000080C4F33464246494699
S214401BC02846B847013C019B13F4004F01D0002C37
S214401BD0F3D12B6823F010032B60201C18BF012084
S214401BE003B0BDE8F08300BF6D1D40000D1D4000F2
S214401BF02DE9F04383B006468946144639483A4BA9
S214401C0098473A4B9C4262D8394B9C420FD8394B46
S214401C109C4241D8384B9C4241D8384B9C4241D894
S214401C20374B9C428CBF4FF48023002301E04FF497
S214401C30A013726822F4E012726074681C437460E9
S214401C4002AB002243F8042D326842F010023260A4
S214401C500222494630462B4CA047019B052B3AD0E2
S214401C60FF22294B1A604C4620254FF00208254F8C
S214401C70013404F01F0401AB424621463046B847C3
S214401C80019B222B11D06B1E13F0FF05F0D1336859
S214401C9023F0100333601AE04FF48013C9E74FF483
S214401CA04023C6E74FF40023C3E7174B1C60336856
S214401CB023F010033360214601AB01223046114D1C
S214401CC0A847A14503D049463046074B98470020D1
S214401CD003B0BDE8F083336823F010033360494611
S214401CE00024E9E700400340911B4000001C4E0ED4
S214401CF000688909000E270700B4C404005A62022F
S214401D00002D31010D1D4000406B002010B483B003
S214401D10846814F0040FFBD0920402F4F80242F0F8
S214401D20C04242F40032C90501F078610A4342637A
S214401D30002201920C49826812F0040F07D1019AE2
S214401D4001320192019A8A42F5D9012007E0826861
S214401D5012F0040FFBD0426B92B21A60002003B020
S214401D605DF8044B704700BF3F420F0010B483B08D
S214401D70846814F0040FFBD0920402F4F80242F098
S214401D80A04242F40032C90501F078610A439BB292
S214401D901A43426300230193084A836813F0040FF2
S214401DA007D1019B01330193019B9342F5D9012052
S214401DB000E0002003B05DF8044B70473F420F0040
S214401DC04264B1F1C05F3AD013D8B1F1006F25D06C
S214401DD0B1F1805F0AD1036F13430367436F416FCE
S214401DE00B4023EA02034367426070470029FBD159
S214401DF07047B1F1205F21D009D8B1F1005FF3D12F
S214401E00036F13430367436F13434367ECE7B1F134
S214401E10405F13D0B1F1605F10D0E5E710B4016FBA
S214401E20046FD34321401C4619400167436F416FFE
S214401E300B402340436742605DF8044B7047036F96
S214401E40016F0B4023EA02030367436F1343436764
S214401E50CAE7416412F0010F14BF4166016612F0F2
S214401E600A0F14BF0162416212F0020F07D112F04E
S214401E70080F18BFC0F88410416101607047C0F871
S214401E808010F9E710B4019C41644CB901664BB12F
S214401E9001654AB94163016101605DF8044B7047D2
S214401EA04166F4E74165F4E70163F4E7C06C7047C8
S214401EB0806C704770B582B005460E46144602F0F8
S214401EC0F043B3F1005F3DD00AD8B3F1805F21D034
S214401ED0B3F1C05F2AD0B3F1006F0ED0002017E0F8
S214401EE0B3F1405F3AD0B3F1605F37D0B3F1205FD3
S214401EF0F4D1234B984701200AE00A464FF0006190
S214401F00204B984714F0010F14BF6E662E660120D2
S214401F1002B070BD0A464FF080511A4B984714F0F5
S214401F20010F14BF6E662E660120F1E70A464FF099
S214401F30C051144B984714F0010F14BF6E662E66BE
S214401F400120E5E70A464FF000510E4B984714F043
S214401F50010F14BF6E662E660120D9E704F060526A
S214401F6004F001030093C4F38003B2F1605F14BF32
S214401F700022012231462846034CA0470120C7E7ED
S214401F80531E4000C11D4000851E40002DE9F84309
S214401F9081460F46124B984705464846114B984790
S214401FA0054013D0104C04F1600603E0B4420DD057
S214401FB010345DB12068B842F8D161682942F5D046
S214401FC0E3689847636825EA0305EFE7074B1B6815
S214401FD023B1074B1B680BB148469847BDE8F883CA
S214401FE0AD1E4000B11E4000446B0020503401201E
S214401FF0B46B002008B509210148024B984708BD3C
S214402000000E0E408D1F400008B50A210148024BC5
S214402010984708BD00100E408D1F400008B50B21A4
S2144020200148024B984708BD00120E408D1F4000E5
S21440203008B50C210148024B984708BD00140E40D5
S2144020408D1F400008B50D210148024B984708BD3A
S21440205000160E408D1F4000174A136B23F0700386
S21440206018431063936E13F0080F0AD14FF40063C1
S21440207011498A6E12F0080F03D1013BF9D10120B5
S21440208070470D4A136B23F0030343F002031363B8
S214402090936E13F0080F0AD14FF4006306498A6E18
S2144020A012F0080F05D1013BF9D1012070470020FE
S2144020B070470020704700BF00040E40C8B9114A60
S2144020C0136A090289B223F45C1323F0030343F432
S2144020D05C1343F001030B431362936E13F0010F3E
S2144020E0FBD0084A136A43F09B7343F48033136271
S2144020F0704704490B6A044A1A40044B13430B6268
S214402100704700BF00040E40FCFFC8FE02003701C7
S214402110024B986E00F48030704700BF00040E40BB
S2144021204FF00052014B9A62704700BF00040E40C9
S214402130024B986E00F00200704700BF00040E404D
S2144021402F281ED81F280CD8114B9A69012383408C
S214402150934318D0012303FA00F00D4B186100207A
S214402160704720380A4BD3F8082101238340934315
S2144021700BD0012303FA00F0054BC3F80001002002
S214402180704701207047002070470020704700BF0E
S21440219000040E402F2822D81F280ED8114B9A69CB
S2144021A001238340934301D000207047012303FA64
S2144021B000F00C4B5861002070472038094BD3F88C
S2144021C0082101238340934301D000207047012318
S2144021D003FA00F0034BC3F80401002070470120C7
S2144021E0704700BF00040E40000200F47060014BD0
S2144021F09863704700040E408022014B1A60704777
S21440220000040E40034B1A6FC0F3120010431867C9
S214402210704700BF00040E40014B1860704700BF77
S214402220CC000020114A136F23F4C00310490968FC
S2144022300B431367136A43F45C1343F004031362BF
S214402240936E13F0080FFBD04FF4FA7300BF013BB8
S214402250FCD1064A136A13F0080FFBD0034A136FEB
S21440226023F4C00343F480031367704700040E4012
S214402270CC0000202DE9F843431E042B00F21681C3
S214402280DFE813F005000500150015000501884A33
S214402290136923F0040313610122864B1A70BFF3BF
S2144022A05F8F62B6BFF34F8F30BFBDE8F8830446FA
S2144022B003280CBF00204FF400107F4B984772B69F
S2144022C0BFF35F8F00227B4B1A7001227B4B1A7044
S2144022D07B4B1F6A1D6B7B4AD2F800809E6A47F490
S2144022E05C1242F008021A6205F00309B9F1010FC8
S2144022F040F28D8025F0030141F0010119631A4632
S214402300936E13F0080FFBD011F0700F08D021F039
S21440231070016B4B19631A46936E13F0080FFBD08F
S214402320694B9847664A936E13F4003FFBD0644A65
S214402330136A23F09B7323F4803343F45C131362D5
S214402340936E13F4803FFBD028F470635D4A1360AD
S214402350042C5ED0574C01232370BFF35F8F62B6C8
S2144023605A4B984772B6BFF35F8F0023237017F01F
S214402370020F59D0524A136A55491940554B0B43E0
S2144023801362136A23F45C1323F0780343F45C135C
S2144023901362514B3340002B77D046F00056484BE3
S2144023A09E620221B9F1020F04D1454A936E13F0A2
S2144023B0020FFBD0424A136B23F0700305F0700007
S2144023C003431363936E13F0080FFBD03D4BC3F8E3
S2144023D00080A3F5C0631D631A46936E13F0080F82
S2144023E0FBD0374A936E0B42FCD00022334B1A7018
S2144023F03A4B1B681BB198470022384B1A600122A3
S2144024002C4B1A70BFF35F8F62B6BDE8F88329463F
S2144024107AE7A2F5C062136A23F45C1323F0010343
S21440242043F45C13136295E717F0010FB1D0244BC9
S2144024301B6A13F0010F0ED1214A136A23F45C1372
S21440244023F0030343F45C1343F001031362936EDB
S21440245013F0010FFBD01A4B1B6A13F0807F0AD192
S214402460174A136A43F09B7343F480331362936EA8
S21440247013F4803FFBD0124A136A23F45C1323F014
S214402480780343F45C13136283E700218AE7084A23
S214402490136943F004031361114A124B1A60012278
S2144024A0044B1A70BFF35F8F62B630BFBDE8F88347
S2144024B000ED00E0C800002019224000B86B002064
S2144024C000040E40000A0E40212140002522400014
S2144024D0FCFFC8FE020037010000FF07BC6B00206F
S2144024E0040000A510180E40024B187880F001003A
S2144024F0704700BFB86B002010B4AC2303600B6875
S2144025004A68B3FBF2F31B095C1E4FF6FE72944218
S2144025100CD803628B68436040F20223C0F8203137
S2144025205023036000205DF8044B70470120FAE713
S214402530436913F0020F1ABFC161002001207047A3
S214402540436913F0010F1DBF83690B700020012003
S2144025507047000082B0014628BB244B1B781BB94D
S214402560224B197002B07047214B9B7803B9FEE7A7
S214402570EFF31083B3FA83F35B09009372B6BFF3AD
S2144025805F8F00221B4B1A700098194A9378013BC4
S21440259093700028E4D00122164B1A70BFF35F8F69
S2144025A062B6DDE7FEE7114B1B78002BD8D1104B07
S2144025B09B78FF2BF6D0EFF31083B3FA83F35B09D7
S2144025C0019372B6BFF35F8F00220A4B1A700198D0
S2144025D0074A9378013393700028C1D00122054BF7
S2144025E01A70BFF35F8F62B6BAE700BFC16B0020B8
S2144025F03C340120C8000020034A00231361536185
S2144026009381024A1370704754340120C66B0020F1
S21440261082B005220A4B1A700A4A136B0193019B3B
S21440262043F04F030193019B43F020030193019B2A
S2144026301363136B13F0200FFBD002B0704700BF3C
S214402640C66B00200040084082B003220A4B1A7036
S2144026500A4A136B0193019B43F04F030193019B7E
S21440266043F010030193019B1363136B13F0100F99
S214402670FBD002B0704700BFC66B00200040084049
S21440268008B5024B1B6903B1984708BD5434012076
S21440269030B587B0634B1B78032B29D0624B1B8821
S2144026A0624A9489E41AA4B2002C44D1604A118844
S2144026B00B449BB213805D4AD2889A4203D05D4B4E
S2144026C01B78002B2BD00422564B1A705A4A136B99
S2144026D00193019B43F04F030193019B23F00103B9
S2144026E00193019B1363136B13F0010FFBD114E0AE
S2144026F0514A136B0093009B43F04F030093009B9B
S21440270023F001030093009B1363136B13F0010F38
S214402710FBD14A4B98474A4B984707B030BD434B8E
S2144027205B69002B5DD0984700285AD000223E4B6C
S2144027301A803E4B9C893F2C53D900223D4B1A7041
S21440274040243A4B9968384B1888EFF31083B3FA15
S21440275083F35B09059372B6BFF35F8F0022394B54
S2144027601A70059D344B1B6B13F0020F3DD14CB1D4
S21440277001440A46304812F8013B0365531ADBB25F
S214402780A342F8D3284B1A8814441C802A4A136B59
S2144027900393039B43F04F030393039B43F01003C1
S2144027A00393039B1363136B13F0100FFBD0224A63
S2144027B0136B0493049B43F04F030493049B23F052
S2144027C001030493049B1363136B13F0010FFBD1B7
S2144027D0002DA2D001221B4B1A70BFF35F8F62B64A
S2144027E09BE70122134B1A70ABE72DB10122154B24
S2144027F01A70BFF35F8F62B604220A4B1A700E4AF5
S214402800136B0293029B43F04F030293029B23F009
S21440281001030293029B1363136B13F0010FFBD16A
S2144028207BE700BFC66B0020C26B002054340120FB
S214402830C46B0020C06B002000400840812640004A
S214402840F9254000C800002038B5437C13F0100F2F
S21440285016D00D46437C6FF30413437404687CB172
S21440286002F10C03074951F8233013F4806F18BF68
S21440287042F080028168012D14BF00200120A0474D
S21440288038BD00BF0040084030B482B0411E8300CF
S21440289003F1402303F500231A6B1C6B12F0020F62
S2144028A032D014F0400F08D101EB81022A4C04EBE1
S2144028B08202547C6FF38304547401EB8102264CED
S2144028C004EB8202527C12F00C0F28D11A6B009255
S2144028D0009A42F04F020092009A22F002020092C2
S2144028E0009A1A631A6B12F0020FFBD180B30328CA
S2144028F02ED001EB8101184B03EB81035A7C01215A
S21440290061F383025A7423E001EB8102124C04EB1C
S2144029108202547C012565F383045474CDE71A6B18
S2144029200192019A42F04F020192019A22F040022F
S2144029300192019A1A631A6B12F0400FFBD101EB19
S2144029408101054B03EB81014B7C6FF383034B7492
S21440295002B030BC704700BFC86B00202DE9F04F76
S21440296083B08246471E07EB8702674B03EB820322
S21440297093F81190C9F38109002800F0B980032824
S2144029800CBF012302234B4540F3B48007EB87037B
S2144029905D4A02EB8303DD68D3F808C0654508D37B
S2144029A007EB870302EB83035B7C13F0400F00F0DA
S2144029B0A58007EB8703544A02EB83035C682C44EC
S2144029C0ACEB050E1A8AC2F30906B6453ABF764600
S2144029D04FF001084FF0000805EB060E07EB8703A3
S2144029E0494A02EB8303C3F80CE0072E33D904F1BF
S2144029F008033546820002F1402202F5002213F811
S214402A0008BCC2F850B013F807BCC2F850B013F870
S214402A1006BCC2F850B013F805BCC2F850B013F864
S214402A2004BCC2F850B013F803BCC2F850B013F858
S214402A3002BCC2F850B013F801BCC2F850B0083D12
S214402A400833072DDBD8A6F1080323F00703083325
S214402A501C4406F007064EB1A2192C4D0AF1140A82
S214402A6014F8013B45F82A309442F9D107EB870326
S214402A70254A02EB830309F101095A7C69F3830274
S214402A805A74A1B1800000F1402000F50020036B8D
S214402A900193019B43F04F030193019B43F01003C6
S214402AA00193019B0363036B13F0100FFBD0B8F147
S214402AB0000F08D007EB8703134A02EB83035A7CC8
S214402AC06FF386125A74F4451AD807EB87030E4AFA
S214402AD002EB83035B7C13F0400F13D107EB8703B5
S214402AE002EB83035A7C42F080025A74002002E0D4
S214402AF0012348E7012003B0BDE8F08F0020FAE745
S214402B000120F8E70120F6E7C86B002000400840A7
S214402B102DE9F04F9BB0874B984720B9864BDB6931
S214402B2013F4807F3BD02320844B9847824B9B698D
S214402B3013F4006F04D0804BDB6913F4006F37D179
S214402B407D4BDB6913F0010F00F0C6817A4B1B6B9F
S214402B5013F0040F35D1784B1B6B13F0010F40F088
S214402B60C580754B1B6B13F0020F40F0C280724B52
S214402B701B6B13F0080F00F0AF816F4A136B009386
S214402B80009B43F04F030093009B23F00803009301
S214402B90009B1363136B13F0080FFBD105E072B66E
S214402BA0BFF35F8F0022664B1A701BB0BDE8F08FF4
S214402BB04FF40062604B1A62624B9847624B9847EC
S214402BC0F3E7624B1B78CBB95B4B1B6BC3F30A43F3
S214402BD0082B18D0584A136B0193019B43F04F03C0
S214402BE00193019B23F004030193019B1363136B32
S214402BF013F0040FFBD1564B9847D6E7554B9847F2
S214402C00554B9847E0E7554B03F108004A490A6D93
S214402C1003F8012F8342FAD1514B984798B9464A58
S214402C20136B0293029B43F04F030293029B23F0E5
S214402C3004030293029B1363136B13F0040FFBD140
S214402C40434B9847B1E7474B93F90030002B1DDBC9
S214402C50394A136B0593059B43F04F030593059B39
S214402C6023F004030593059B1363136B13F0040FC3
S214402C70FBD13C4BDB88002B35D000233A4A1380EF
S214402C803A4A13800122314B1A708EE72A4A136B58
S214402C900393039B43F04F030393039B43F080034C
S214402CA00393039B1363136B13F0800FFBD0224AEE
S214402CB0136B0493049B43F04F030493049B23F04D
S214402CC004030493049B1363136B13F0040FFBD1AC
S214402CD00023254A1380254A138002221B4B1A7074
S214402CE0234B984761E7234B98475EE7204B98472E
S214402CF05BE7164B1B78012B3ED0022B04D0042BEF
S214402D0002D0134B984701E0124B98470A4A136B80
S214402D100693069B43F04F030693069B23F002035D
S214402D200693069B1363136B13F0020FFBD10A4BFB
S214402D3098473AE7E92440000040084041214000D7
S214402D40C8000020DD104000C5C24000C66B002011
S214402D501126400081264000F925400053340120CA
S214402D601D11400054340120C46B0020C26B00206B
S214402D709126400049264000514B196BC1F30A4149
S214402D80504B9B89504A15886A189342BCBF5B1BC0
S214402D9099B24C4B9868284471B10246484C236D12
S214402DA002F8013B131ADBB28B42F8D30D44ADB2A6
S214402DB0454B1D8040291AD0424B9D815B6913B11B
S214402DC09847002830D03E4A136B0893089B43F040
S214402DD04F030893089B23F002030893089B136352
S214402DE0136B13F0020FFBD1384B9847DDE6354B9B
S214402DF0DA88374B1B882B449A42DDDD314B9B8962
S214402E00AB4225D02E4A136B0B930B9B43F04F03DC
S214402E100B930B9B23F002030B930B9B1363136BD9
S214402E2013F0020FFBD1C0E62A4B9847244A136B97
S214402E300793079B43F04F030793079B23F0020338
S214402E400793079B1363136B13F0020FFBD1ACE69B
S214402E501C4B5B6953B19847E8B11D491A4A0B8829
S214402E60108803440B8000231380CBE7194B984708
S214402E70134A136B0993099B43F04F030993099B2D
S214402E8023F002030993099B136313461A6B12F04F
S214402E90020FFBD189E60F4B9847094A136B0A93FA
S214402EA00A9B43F04F030A930A9B23F002030A93BC
S214402EB00A9B136313461A6B12F0020FFBD174E69B
S214402EC00040084054340120C26B00204926400090
S214402ED0C46B002011264000974B9B6913F0020FED
S214402EE011D0964B1B6B13F0420F40F0C980934BAA
S214402EF01B6B13F0010F40F03381904B1B6B13F0AC
S214402F00080F40F07B828C4B9B6913F0040F13D064
S214402F108B4B1B6B13F0420F40F0A980884B1B6B0A
S214402F2013F0010F40F00181854B1B6B13F0080F27
S214402F3018BF022340F063827F4B9B6913F4005F07
S214402F4005D07D4BDB6913F4005F40F077827A4B07
S214402F509B6913F4007F05D0774BDB6913F4007F41
S214402F6040F06C82744B9B6913F4806F05D0724BB3
S214402F70DB6913F4806F40F061826F4B9B6913F4FA
S214402F80807F05D06C4BDB6913F4807F40F069820C
S214402F90694BDB6913F4805F3FF407AE664C4FF431
S214402FA080532362674E012211463046664DA8473D
S214402FB00222012106F11400A847644B9847636833
S214402FC023F001036360636823F002036360A36831
S214402FD043F48073A360A36823F07F03A360236B4E
S214402FE01893189B43F04F031893189B23F40743FA
S214402FF023F080031893189B43F400431893189BC0
S21440300023632246136B13F4004FFBD04A4A136BDC
S2144030101993199B43F04F031993199B43F40043AC
S2144030201993199B1363136B13F4004FFBD0EFF304
S2144030301083B3FA83F35B09179372B6BFF35F8FBF
S2144030400022434B1A70179B01213B4A116123B162
S2144030503F4B1970BFF35F8F62B63E4B9847364B77
S2144030604FF480721A614FF400621A619DE54FF08A
S2144030700208DFF8E89001254FF0040A444607E0CE
S2144030804FF00108DFF8BC9000254FF0020A444696
S214403090AB005A192B4B03EB82031F8AC7F3090771
S2144030A0A40004F1402404F50024266BC6F30A4627
S2144030B0002E00F0FF81234B03EB8203D3F808E099
S2144030C0DA68AEEB02015868B14240F2E681AB00E6
S2144030D059191C4B03EB81039119D96031464FF0C7
S2144030E0000B10440346226D03F8012B1A1A8A423D
S2144030F0F9D34046184B9847BBF1000F00F0DD81EE
S214403100236B13F0200F7FF450AD0B4BC3F814A085
S2144031100C4BAA00511903EB8101CB688B604246E9
S21440312000214846084B98473FE50226DFF82C80AA
S21440313001250427344619E0004008400440084072
S21440314008400840C86B00204928400095104000C1
S214403150C8000020F925400089284000DC6B00208C
S2144031600126DFF88482002502273446AB002B4434
S2144031709D4A02EB8302537CC3F38101033161F322
S21440318083035374537C13F0200F57D013F00C0F67
S21440319025D0A30003F1402303F500231A6B0C92BD
S2144031A00C9A42F04F020C920C9A42F010020C928B
S2144031B00C9A1A631A6B12F0100FFBD01A6B0D9212
S2144031C00D9A42F04F020D920D9A22F001020D9296
S2144031D00D9A1A631A6B12F0010FFBD1E5E4A300B7
S2144031E003F1402303F500231A6B0E920E9A42F029
S2144031F04F020E920E9A22F001020E920E9A1A6317
S2144032001A6B12F0010FFBD11A6B0F920F9A42F015
S2144032104F020F920F9A42F020020F920F9A1A63B3
S2144032201A6B12F0200FFBD0AB001D446E4B03EB25
S21440323085035A7C6FF345125A74B6E413F0800F38
S2144032403DD1AB005A19684B03EB8203DA689B68A2
S2144032509A4246D3AB005A19634B03EB82035B7C1E
S21440326013F04C0F3DD1EFF31083B3FA83F35B09B1
S214403270109372B6BFF35F8F00225C4B1A70109BA0
S2144032805B4A57612BB10122584B1A70BFF35F8FD0
S21440329062B6A30003F1402303F500231A6B119294
S2144032A0119A42F04F021192119A22F001021192A5
S2144032B0119A1A631A6B12F0010FFBD175E41423AE
S2144032C0494A03FB0523597C6FF3C7115974DA68E2
S2144032D09A60474B5F61324600214046454B9847CF
S2144032E0AFE7002E64D0032E62D014233E4A03FB81
S2144032F005235B7C13F00C0F29D0A30003F1402379
S21440330003F500231A6B1292129A42F04F02129261
S214403310129A42F010021292129A1A631A6B12F024
S214403320100FFBD01A6B1392139A42F04F0213926F
S214403330139A22F001021392139A1A631A6B12F030
S214403340010FFBD1002130462B4B98472DE401213D
S2144033503046294B9847C8B1A30003F1402303F5F4
S21440336000231A6B1492149A42F04F021492149A45
S21440337022F001021492149A1A631A6B12F0010F8B
S214403380FBD1002130461C4B98470EE41422164BC6
S21440339002FB0533597C6FF3C7115974DA689A609B
S2144033A0134B5F61324600214046124B9847D3E7A5
S2144033B001213046104B9847A30003F1402303F504
S2144033C000231A6B1592159A42F04F021592159AE1
S2144033D022F001021592159A1A631A6B12F0010F29
S2144033E0FBD1FFF7E2BB00BFC86B0020C80000203F
S2144033F000400840492840005D29400001239B00CA
S21440340003F1402202F50022136B1693169B43F0FD
S2144034104F031693169B23F008031693169B1363CD
S214403420136B13F0080FFBD1136B03F4E063B3F593
S214403430807F3FF4BAAB136BFFF7B7BB214C4FF41A
S21440344018532362636101201F4B98471F4B9847D0
S2144034504FF48073236223614FF400632361FFF7C8
S214403460A4BB184B4FF480721A625A614FF4005254
S2144034701A614FF400721A614FF480621A61232079
S214403480134B98470020104B9847124B9847FFF72E
S2144034908CBB4046104B984732E6AB0003EB050C1E
S2144034A00E4B03EB8C03C3F80CE00029F1D04FF031
S2144034B0010B16E64046084B9847B7423FF620AE0B
S2144034C0FFF773BB0040084055254000B9C2400096
S2144034D095214000ADC2400089284000C86B0020BE
S2144034E010B582B0EFF31083B3FA83F35B09019310
S2144034F072B6BFF35F8F0022144B1A70019C0120F6
S214403500134B98472320134B9847134B5A6F22F47C
S21440351080725A675A6F42F400725A674FF480724C
S2144035201A614FF400521A614FF400721A614FF458
S21440353080621A614FF400621A612CB10122034B7B
S2144035401A70BFF35F8F62B602B010BDC80000208D
S21440355055254000412140000040084030B583B02A
S214403560EFF31083B3FA83F35B09009372B6BFF3AD
S2144035705F8F0024254B1C70009D2320244B9847CA
S214403580244B9847244B502283F8232308225A6022
S214403590224B5A7C02F0830264F3C7125A7493F8A3
S2144035A0252002F0830264F3C71283F825204FF4E7
S2144035B080201B4B98471B4B1C701B4B1B78FF2BCC
S2144035C022D0EFF31083B3FA83F35B09019372B60C
S2144035D0BFF35F8F00220D4B1A700199124A137881
S2144035E00133137029B10122084B1A70BFF35F8F65
S2144035F062B60E4B98472DB10122044B1A70BFF3AA
S2144036005F8F62B603B030BDFEE700BFC800002043
S214403610412140004D02400000E100E0C86B002020
S21440362005224000C16B00203C340120E1344000BC
S2144036300D4B5A6822F001025A609A6822F4807252
S2144036409A60024670B1986820F07F0002F07F02D0
S214403650104398609A6842F480729A605A6842F0C2
S21440366001025A60704700BF00400840054B5B6847
S21440367013F0010F1DBF034B986800F07F00002039
S214403680704700BF00400840024B1868C0F30A006D
S214403690704700BF00400840014B986099817047D2
S2144036A054340120F0B583B000F00F04022C67D8E4
S2144036B0A30003F1402303F500231D6B15F4004FD0
S2144036C061D101F00305012D50D0251FEDB2022D2A
S2144036D034BF4FF400754025954258DB40B2661E15
S2144036E006EB86072B4D05EB870505F11007B5F869
S2144036F010E062F3090EA5F810E06A7C02F07F0243
S2144037006FF345126A74002835DB234EB56A0122F2
S21440371002FA04F42543B5623546AA6A1442FCD040
S2144037201D4DAA6A22EA0404AC621A6B0192019A01
S21440373042F04F020192019A22F4074222F08002A0
S214403740019200284FEA012202F44072B4BF42F4CC
S214403750044242F4004201991143019101991963D0
S214403760196B32EA0101FBD101200AE06CB1032C4F
S214403770ABD1002005E07A786FF383027A70C4E715
S214403780002003B0F0BD0020FBE70020F9E7002052
S214403790F7E700BFC86B00200040084000F00F026B
S2144037A0022A22D800B583B0910001F1402101F5EC
S2144037B000210B6B0193019B43F04F030193019B48
S2144037C023F400430193019B0B630B6B13F4004FF0
S2144037D0FBD1501E00EB80000121044B03EB800020
S2144037E0034B984703B05DF804FB7047C86B002056
S2144037F04928400000F00F00022815D8431E03EB6E
S21440380083030A4A02EB83035B7C13F0200F09D143
S2144038100C30074B53F8203013F0280F14BF01200C
S214403820002070470120704700207047C86B00207A
S2144038300040084000F00F01022960D810B483B061
S214403840EFF31083B3FA83F35B09019372B6BFF3C9
S2144038505F8F00222D4B1A70019C10F0800F25D1EF
S2144038608A0002F1402202F50022136B0093009B6F
S21440387043F04F030093009B43F020030093009BCC
S2144038801363136B13F0200FFBD0012303FA01F1EF
S2144038901F4B1961002C36D001201C4B1870BFF30B
S2144038A05F8F62B603B05DF8044B70474B1E01F164
S2144038B00C02174850F8222012F0100F09D103EBE3
S2144038C08302144800EB8202527CC2F38102012A32
S2144038D0C6DD03EB83020F4B03EB82035A7C42F0B8
S2144038E020025A74012303FA01F1094B196144B1CD
S2144038F00120064B1870BFF35F8F62B6D2E70020F8
S21440390070470120CEE70120CCE700BFC80000206A
S21440391000400840C86B002000F00F0002285ED828
S21440392030B583B0441E04EB84022F4B03EB820376
S2144039305A7C6FF345125A74830003F1402303F513
S21440394000231A6B12F0200F4BD01A6B0092009A8D
S21440395042F04F020092009A22F020020092009A13
S2144039601A631A6B12F0200FFBD1204DA96A012270
S21440397002FA00F00143A96229468A6A1042FCD046
S2144039801A498A6A22EA000088621A6B0192019AF2
S21440399042F04F020192019A22F008020192019AE7
S2144039A01A631A6B12F0080FFBD104EB84030E4A1D
S2144039B002EB83035B7C13F0100F01D1012011E072
S2144039C01146A200131901EB8303587C6FF30410D1
S2144039D05874144451F824309847012002E00020DF
S2144039E07047012003B030BDC86B0020004008403F
S2144039F0F0B583B000F00F07022F00F2A280BC00A3
S214403A0004F1402404F50024256B15F4004F00F023
S214403A109B807D1E05EB850E504E06EB8E06767C13
S214403A2016F0200F40F09280266B16F0200F40F0E4
S214403A308F80EFF31086B6FA86F67609009672B651
S214403A40BFF35F8F4FF0000E454E86F800E0DDF87E
S214403A5000C005EB850E414E06EB8E06767C16F0D2
S214403A60100F0AD0BCF1000F74D001223C4B1A70E4
S214403A70BFF35F8F62B6002064E005EB850E374EDD
S214403A8006EB8E0696F811E04EF0100E86F811E022
S214403A90BCF1000F07D04FF0010E314E86F800E023
S214403AA0BFF35F8F62B6DFF8B4C005EB8506B6009D
S214403AB00CEB060ECEF80420CEF808300022CEF8E6
S214403AC00C20089A4CF8062011B9B3FA83F149093C
S214403AD0224AAE00731902EB83035B7C61F38613C4
S214403AE0354402EB85026FF3C7135374EFF310832C
S214403AF0B3FA83F35B09019372B6BFF35F8F00227C
S214403B00174B1A70019D0123BB40164A136110F0F3
S214403B10800F07D105B30120114B1870BFF35F8F9C
S214403B2062B60FE0236B13F0110FF3D10121384634
S214403B300D4B98470028EDD0002138460A4B984751
S214403B40E8E7002003B0F0BD0020FBE70020F9E7DF
S214403B500020F7E70020F5E70120F3E7C86B0020D8
S214403B60C8000020004008405D294000F0B587B0FE
S214403B7000F00F05022D40D8EFF31083B3FA83F31D
S214403B805B09059372B6BFF35F8F00224B4B1A70EA
S214403B90059B0124AC404A4A54612BB10122474B55
S214403BA01A70BFF35F8F62B610F0800F27D1AE0059
S214403BB006F1402606F50026336B13F0420F06D07A
S214403BC0404F2846B847336B13F0420FF9D13C4A72
S214403BD0936A23439362936A1C42FCD0384A936AA2
S214403BE023EA04049462681E00EB80002A46012102
S214403BF0354B03EB8000354B984707B0F0BDAB0024
S214403C0003F1402303F500231A6B12F0100F3AD04D
S214403C104DB3032D27D01A6B0192019A42F04F0202
S214403C200192019A22F010020192019A1A631A6BCD
S214403C3012F0100FFBD11A6B12F0100FFBD11A6B5B
S214403C400292029A42F04F020292029A42F0100208
S214403C500292029A1A631A6B12F0100FFBD01A6B7C
S214403C6012F0100FFBD01A6B0392039A42F04F02E9
S214403C700392039A22F010020392039A1A631A6B75
S214403C8012F0100FFBD11A6B0492049A42F04F02C6
S214403C900492049A22F001020492049A1A631A6B60
S214403CA012F0010FFBD16B1E03EB8302064B03EBB6
S214403CB082035A7C6FF383025A7488E7C800002058
S214403CC00040084089284000C86B00204928400032
S214403CD000F00F0002282BD838B5830003F14023AC
S214403CE003F500231A6B12F4004F23D0013800EB83
S214403CF08004124A02EB8402527C12F0100F1BD151
S214403D001B6B13F0200F02D112F0200F0DD00B4D7D
S214403D108200131805EB83035C7C44F010045C744B
S214403D20104445F82010012038BD8847012038BD92
S214403D3000207047002038BD002038BDC86B0020EA
S214403D40436913F0020F1DBFC1F30801C161002093
S214403D5001207047436913F0010F05D08369C3F310
S214403D6008030B600020704701207047FEE7000004
S214403D7000B583B0254B264A9A4210D0254B234A9D
S214403D809A420CD2013B9B1A23F00303043313449C
S214403D901F4951F8040B42F8040B9A42F9D11E4BC6
S214403DA01E4A9A420AD2013B9B1A23F0030304336D
S214403DB01344002142F8041B9342FBD1184A194B86
S214403DC023F07F039360EFF31083B3FA83F35B092A
S214403DD0019372B6BFF35F8F0022134B1A7001999E
S214403DE0124A136843F470031360BFF34F8FBFF358
S214403DF06F8F29B101220C4B1A70BFF35F8F62B6EA
S214403E000B4B98470B4B9847FEE700BF000000203F
S214403E1054444100A80A0020CC340120A80A0020BF
S214403E2000ED00E000004000C800002088ED00E003
S214403E3001C34000DDBF40003B4B1B6B03F0030358
S214403E40012B1DD083B1022B36D0374B1B6B03F0B2
S214403E507003702B5FD0344B1A6B3449C2F3021296
S214403E600B68D3400B607047314B5B6913F0800F93
S214403E7014BF4FF400424FF4FA422C4B1A60E4E76A
S214403E80294B1B6A13F0807F03D02A4A274B1A60BF
S214403E90DBE7294A254B1A60234B1B6A03F0700365
S214403EA0102B05D0202BD0D1224A204B1A60CCE7CD
S214403EB0224A1E4B1A60C8E71B4B1B6A13F0807FD2
S214403EC016D01C4A194B1A60174B1B6B03F00303A2
S214403ED0022BBAD1144A916A926A1448C1F30A4135
S214403EE0036801FB0333D2B2B3FBF2F30360ACE7E3
S214403EF0114A0E4B1A600C4B1B6A03F07003102BD2
S214403F0005D0202BE0D10B4A084B1A60DCE70B4A61
S214403F10064B1A60D8E7054A13680949A1FB031304
S214403F205B081360704700BF00040E40D0000020BE
S214403F3010180E40001BB70000093D0000127A0022
S214403F40ABAAAAAA124B984211D9124B984213D93F
S214403F50114B984214D9114B984215D9104B9842A0
S214403F6094BF4FF004220F4A0F4B1A6070474FF031
S214403F7080620D4B1A6070470C4A0B4B1A607047B4
S214403F800B4A094B1A6070470A4A074B1A6070473B
S214403F90FF2C3101FF596202FF869303FFB3C4042E
S214403FA0FFE0F50500050004000A0E40000100048D
S214403FB000020004000300040A4B1B6853B1094B7F
S214403FC01B681A180849914208DB1046054A1060DB
S214403FD018467047054A034B1A60F0E74FF0FF302B
S214403FE0704700BFF06B0020FCFF0120D06401202A
S214403FF04FF0FF3070474FF400534B60002070473F
S214404000012070470020704710B51820054B984790
S214404010044620B1002340F8043B034B9847204613
S21440402010BD00BFA1A040005D9C40002DE9F041BE
S21440403006460D4690461F462B4B984734687FB938
S2144040402C4214BF0123002383B1B8F1000F02D0E5
S21440405024EA05053560254B98472046BDE8F081A3
S21440406035EA04030CBF01230023EDE7069B002B33
S214404070F1D0B8F1000F0CBF00214FF080710FB1A6
S21440408041F08061069A2943301D194B9847174BDB
S214404090984738B94FF08052164B1A60BFF34F8F8F
S2144040A0BFF36F8F144B9847044610F0007F03D041
S2144040B024F07F40BDE8F081104B984734686FB9D4
S2144040C0254214BF012300232BB1B8F1000F02D0C4
S2144040D024EA050535600A4B9847E9E735EA0403C4
S2144040E00CBF01230023EFE739B6400075B7400008
S2144040F04DB9400004ED00E0F5BC4000159F40007F
S214404100359F400070B506460C46054B98473568C7
S21440411025EA04043460034B9847284670BD00BF28
S214404120159F4000359F40002DE9F04105460C465E
S21440413000F10C061B4B98472869296821432960E3
S214404140864224D00027DFF8648009E0296832EAF6
S21440415001010CBF012100210EE02046A64217D0E7
S2144041604468036823F07F4213F0806FEED12968DD
S2144041700A4214BF012100210029EED013F0807FAF
S21440418018BF1743296841F00071C047E5E700278C
S2144041902B6823EA07072F60034B98472868BDE83B
S2144041A0F08100BF39B6400075B74000F5B9400011
S2144041B070B50446094B9847636843B14FF00076A4
S2144041C0074D31462069A8476368002BF9D1204641
S2144041D0044B9847044B984770BD00BF39B6400023
S2144041E0F5B94000B9A1400075B740002DE9F04F41
S2144041F083B0454B5B6983EA0104444A52681442E3
S21440420001D0002B62D188460646414C4FF0FF0B4A
S214404210002301934FF0FF39CDF800901D46DFF89C
S214404220F8A016E03EB3062231462046D04708B1F5
S21440423000950AE0374B6A00511903EB810196203E
S21440424088720122CA7241E0A94601350C34062D17
S21440425012D0274654F8043C9845E3D02EB10622A7
S21440426031462046D0470028EED0BB795B45ECD29D
S2144042709B460195E9E70095B9F1000F29DB009BC5
S214404280002B2EDB234803EB43039B00C118002280
S214404290C2504A608A6009EB49031E4A42F82380AE
S2144042A0A6B11C4B4FEA490101EB090292000432C9
S2144042B09C1830689850B288A28001EB090203EB44
S2144042C082029620907213460122DA7203B0BDE84D
S2144042D0F08F009B002B02DBDDF80090DBE7DDF87B
S2144042E0049009EB49030B4A42F82380002ED8D1AC
S2144042F0084B4FEA490202EB090103EB8101052016
S21440430088720022CA72E1E7D8000020246D00209F
S214404310F86B0020F46B002079C34000F8B5254BBD
S2144043205B69002B44D00446C569828AB2F5807F1B
S21440433004D0B2F5007F35D00020F8BDD0F8266016
S2144043409E4201D00020F8BD00F1160729463846A7
S214404350194B98470023237502236375B5420FD047
S2144043603B682362BB88A384C4F82650114B186868
S214404370C4F816009A88BA805B69E3610220F8BDEB
S2144043800E4B1A68C4F806209B886381002323627C
S214404390A38484F8263084F8273084F8283084F8BC
S2144043A02930E3E729461630034B98470020F8BDEE
S2144043B00020F8BDD8000020ED414000242F4100E9
S2144043C00368284A93420BD0B3F1FF3F0FD0264AEA
S2144043D0126993420BD0254A52697AB90220704737
S2144043E0234B1A680A609B888B8001207047214BBC
S2144043F01A680A609B888B800120704730B45A4008
S214404400194C6468224202D0174A946824B913B9FA
S214404410022030BC70471C46174B1B68A3420BD08B
S214404420154A0123D568A54207D001330C32062B26
S214404430F8D104600020ECE7002303EB43020E486B
S21440444000EB8202D27A0AB90220E2E703EB43038A
S2144044509B000433C418C0580860A3888B80012092
S214404460D7E700BFE00000FC246D0020D800002005
S214404470C42D4100242F4100F46B002008B50022D3
S214404480024B1A600220024B984708BD3C6C002045
S21440449031574000F0B586468769124E3C4606F1D5
S2144044A0200C35460FCD20606160A260E3602E464A
S2144044B010346545F5D128682060AB88A3800A4B48
S2144044C01868C7F806009A887A81C7F816007A8373
S2144044D05B69FB61DEF81430C7F826302A23CEF835
S2144044E01C30F0BD182C4100D800002038B50546D9
S2144044F000212A20054B984738B104464561044BB5
S214404500984701212046034B984738BDD19D40002F
S21440451095444000C9A840002DE9F041194C04F1EB
S21440452048060027DFF86C8008E02068C04711E0A6
S2144045302068C0470EE00C34B44210D02546A37A1B
S214404540002BF8D0013BDBB2A372E27A002AECD013
S214404550032BEDD9AB7A002BEDD12F60EBE70A4B5E
S21440456098470446094B1B6823B1C31A44F6206299
S214404570934205D9064B5869064B9847034B1C6037
S214404580BDE8F081F46B002049B640003C6C00204A
S214404590D8000020ED44400008B5482200210248DB
S2144045A0024B984708BD00BFF46B0020D5C54000BD
S2144045B02DE9F84F07468A46914698461D68F135DC
S2144045C04FF0FF3B284E59462846B0470446002841
S2144045D0F9D0F1220021254B984784F800A001230A
S2144045E063700623A370224803681A0E42EA0362E9
S2144045F0190201F47F010A431B0A03F47F43134365
S2144046006360632384F8EC306FF07D0284F8ED201D
S214404610532284F8EE2084F8EF308369EBB9002308
S214404620A372E372134D2868E061AB882384D8F800
S2144046300020494604F1F0000F4B98472868C4F81C
S214404640F500AB88A4F8F9304FF0FF337B604FF4A9
S21440465086437B802046BDE8F88F6FF07F03A372C9
S2144046600023E372DEE700BF8D544000D5C540000E
S214404670406C0020D8000020D9C3400030B587B039
S21440468006AB112243F80C2D04AC0D4A01212046FE
S2144046900C4DA84705460C480C4B98470C4B186ADF
S2144046A00823019300940123039AF1322946094CCA
S2144046B0A04708B107B030BD2846074B9847F9E7F2
S2144046C0902C4100B14540005C2C410051C3400055
S2144046D0406C0020296340000555400070B586B008
S2144046E006AB182243F80C2D04AE164A012130467C
S2144046F0154CA0470446154D6B68C0F8FD30AA68B7
S214404700C0F80321190E41EA03611A0202F47F023F
S21440471011431B0A03F47F4319430D480D4B98473A
S214404720286A0823019300960123039AF132214612
S214404730094DA84708B106B070BD2046074B9847BC
S214404740F9E700BFA42C4100B1454000406C002072
S214404750742C410051C34000296340000555400079
S2144047602DE9F04F8BB0044608230693904B186A09
S21440477006AB019307AB00930123002209A98D4D98
S214404780A847061E40F35A81F02E40F24781099D05
S214404790D5F8EC20884B9A4201D000243FE12B7894
S2144047A0022B01D000243AE1814B1B6868681A0E40
S2144047B042EA0362190201F47F010A431B0A03F42A
S2144047C07F431343984201D0002428E106227B49C8
S2144047D005F11C007A4B9847002840F0278105F1E8
S2144047E0F002B31E2B449A4280F0228195F8F010D6
S2144047F0FF2900F01F816E48D0F808A090F81CB042
S214404800D0F80CE00020049003900290814603F11B
S214404810FF3C5FFA84F805949DE0029B03BB039B34
S21440482013B1634BC3F808A0049B13B1604BC3F8A5
S2144048300CE0B9F1010F40F2FF802B695C4A5360EF
S214404840190E41EA03611A0202F47F0211431B0A61
S21440485003F47F4319435B485B4B98470124DEE0F3
S214404860534B83F81CB0DAE7624529D25078961C41
S2144048701F1ABE4236D203288CBFD2F802700027D9
S214404880013935295ED8DFE801F0515D565D5D5B44
S2144048905D5D5D5D5D5D5D5D5D5D5D5D5D5D5D5D03
S2144048A05D5D5D5D5D5D5D5D5D5D5D5D5D5D5D5DF3
S2144048B05D5D5D5D5D5D5D5D5D5D5D5D7A5D3F6AD7
S2144048C0029B5BB9039B13B1394BC3F808A0049B0A
S2144048D0002BAED0364BC3F80CE0AAE7344B83F837
S2144048E01CB0EFE7029B5BB9039B13B1304BC3F898
S2144048F008A0049B002B9CD02D4BC3F80CE098E7F7
S2144049002B4B83F81CB0EFE7927842450BD0062A33
S21440491018D105990529029A08BF0122029208BFBC
S2144049204FF0000B0EE009F101090BE0042809D115
S214404930264A576008E0042804D1244A976003E0DA
S214404940224AD760002843D032189A4253D2117870
S214404950FF293FF462AF002986D10132F5E70428EB
S214404960F0D1059A022A04D05745EDD109F1010944
S214404970EAE709F10109BA4601220392E4E704286E
S214404980E0D14FEA176E4EEA076E3A0202F47F0213
S2144049904EEA020E3A0A02F47F424EEA020E4FEA0E
S2144049A05E0E4FF47A7202FB0EFE01220492CBE7B3
S2144049B0406C00209561400063825363D80000201D
S2144049C079C34000402C410051C34000246D002074
S2144049D0029B63B9039B13B1194BC3F808A0049B11
S2144049E0002B3FF426AF164BC3F80CE021E7144BE0
S2144049F083F81CB0EEE7029B63B9039B13B1104BE0
S214404A00C3F808A0049B002B3FF413AF0C4BC3F82D
S214404A100CE00EE70A4B83F81CB0EEE7002409983A
S214404A20084B984720460BB0BDE8F08F0024F6E7C9
S214404A300024F4E70024F2E70024F0E70024F1E73E
S214404A40406C00200555400070B586B000230393A7
S214404A50194B1B6A0BB106B070BD112202210846E5
S214404A60164B9847144B1862B0F1FF3F20D00426EF
S214404A70009603AB00221146114DA8470E4C0096F7
S214404A8003AB01220021206AA8474FF48843ADF8C3
S214404A9012300023082204A9206A0A4CA0470028A6
S214404AA0D9D0054C206A084B984700232362D2E7AA
S214404AB00022014B1A62CEE7406C00208D60400019
S214404AC0256940001D6440007D654000034B1B6A1D
S214404AD0834214BF00200120704700BF406C002076
S214404AE010B5002800F0EB8000227E4B1A777E4BF4
S214404AF098477C4B186078B97A4B1B6A002B59D084
S214404B0000227A4B5A617A4B9847764C2061794B13
S214404B1098470123237710BD00229A615A609A6015
S214404B2041F288325A61744B9847FA217348744B65
S214404B309847FA20734B9847DEE70220724B984717
S214404B40012823D06A4B9847664B59691B69C01A9F
S214404B50884240F2C5804900624B59616B4B99428E
S214404B6024D8614B98475F4B1860D8B1604B984744
S214404B705C4C2061A369B3FA83F35B09A3615D4B88
S214404B809847616962485E4B984710BD584B9847B6
S214404B90544C206141F2883363615E4B9847022350
S214404BA0237710BD5C48564B984710BD574A5B4824
S214404BB0534B98475A4B98475A4B1A684B4B5A6137
S214404BC0594B9847474C042323770020574B984728
S214404BD0574B9847206A002800F08280554B9847EC
S214404BE00022404B1A6210BD0520474B98470128CB
S214404BF011D03F4B98473B4A53691269801A9842F6
S214404C006ED95B00374A5361404A934238D90022F6
S214404C10344B1A7710BD334C6368190E41EA036172
S214404C201A0202F47F0211431B0A03F47F4319431E
S214404C304148334B984763682C4A5361394A516818
S214404C4063EA0103136103232377394B9847206AAD
S214404C50384B984700232362E36843B9374AE260FB
S214404C60374B98471F4BD868264B984710BD4EF693
S214404C705F229342F4D84EF660221A4BDA60EFE792
S214404C801B4B9847174B1861224B984710BD1A4B41
S214404C909847144B1B6A1BB3154B9847114C206121
S214404CA041F2883363611B4B984702232377FA20EF
S214404CB0144B984710BD00201C4B984710BD094B1D
S214404CC01B7F042B0CD801A252F823F0EF4A400079
S214404CD03B4B4000E94B40008F4C4000B74C4000F7
S214404CE010BD00BF406C002089BF4000D8000020A7
S214404CF049B640007D464000494A4000BC2C410031
S214404D0051C34000095F400061474000C0D40100E5
S214404D10E82C4100DD4640000C2D4100482D410066
S214404D20159F4000246D0020359F4000E95E4000FE
S214404D304D5740007D654000742D410000B84C0A38
S214404D407D4440000A46E9B1037803F0C001C0291B
S214404D5012D0EBB1012A17D901339A420AD9D21A96
S214404D6018440378A3B1012A0AD901339342F6D3F3
S214404D700020704700207047022A07D9023070474B
S214404D800020704700207047002070470020704782
S214404D9008B10130704770472DE9F04F83B001905D
S214404DA0894693469A46494B9847494FA7FB003752
S214404DB0BF09484B1B796BB1474D0024474E0199BC
S214404DC02846B04780B10134042C03D015F81C3F68
S214404DD0002BF4D1BAF1000F52D10198404B9847BE
S214404DE00F2851D93F4922E0BAF1000F3BD0C4EB1F
S214404DF0C401384B03EB81014A69130E43EA026350
S214404E00100200F47F000343120A02F47F42134369
S214404E108A6913449F421ED2C4EBC4042D4B53F8F8
S214404E202430C9F80030D9F800308BB12E49D9F873
S214404E300020130E43EA0263100200F47F0003438F
S214404E40120A02F47F421343019A2848284CA0478E
S214404E5003B0BDE8F08FC4EBC4041E4B03EB8403E1
S214404E6000221A71DFE7D9F800001A4BE200111B46
S214404E7089005D185850C5F814B0AF611949D6E797
S214404E800023C9F80030E3E71A4B1D68DFF844807A
S214404E90EC00601B08EB800001990430164B9847E5
S214404EA0D9F80020641BA40008EB040348F804204B
S214404EB0C3F814B09F610135042D02D00D4B1D6020
S214404EC090E700220B4B1A608CE700BF49B64000C3
S214404ED0D34D6210646C0020686C002009C9400005
S214404EE0C1CC4000982D4100902D41009C2D4100A2
S214404EF051C34000D46C0020DDCB4000F8B50646D8
S214404F000D4684698BB203F11C0105F11C02120A9E
S214404F1042EA01222282D4F81A20C4F81E201A4AF5
S214404F205269C4F81A208022A27518480288110ACD
S214404F3041EA022161820132028003F1080205F152
S214404F4008031B0A43EA0223E384638CA28C628430
S214404F50A384002727766776142204F10E0138468C
S214404F600B4B9847030A43EA0020C04320830122A4
S214404F7029462046074B98472A35F561394630463C
S214404F80054B9847F8BD00BFD8000020D86C0020DD
S214404F90895740006D584000395A40002DE9F04F7F
S214404FA087B00023059301930293039304930B2940
S214404FB040F2268106460F46038892B2934203D0BB
S214404FC0059807B0BDE8F08F00F10C050C398388D2
S214404FD04FEA132848EA03281FFA88F8B8F1000F6A
S214404FE000F094800024A246DFF890924FF02E0BFB
S214404FF0002C00F011812846C8470346002800F0E0
S2144050000981F119C91A032940F2FE801D1D043991
S2144050100134A4B2A045EBD118785A7842EA00226F
S2144050209878DB7843EA0020F3884FEA132949EA68
S21440503003291FFA89F9A6F80690738803F4786363
S214405040802B68D0B8F1000FBAD0012AB8D1012819
S214405050B6D10AF10100814B98470028B0D03046BF
S2144050607F4B98477F4B1B68002B40F09280002870
S214405070A6D007F12A03C36107F13A017A4B984755
S214405080044600289CD0334686692A36ED1A3544B5
S214405090AAEB030AB24480E0022932D9AB1CD6E020
S2144050A061460346002B00F0C8801878002800F0C0
S2144050B0C880012925D932B10E2A04D806A8104442
S2144050C000F814BC0132581C1B7801F1FF3C002B41
S2144050D0E6D0BCF1010F16D90E2A12D802390DF1CE
S2144050E0040E9644ACEB030C013210F8013B0EF86C
S2144050F0013B03466145D5D00129D3D001390F2A5B
S214405100F2D100205DE761460346CBE74046424683
S2144051104FF0000A88E7B9F1000F3FF451AF002482
S214405120DFF858813E4417E00289130A43EA022317
S2144051301BB2042B7FF444AFD0F80A3006A941F8DE
S214405140043D0023426801A8484CA04738E7013494
S214405150A4B2A1453FF434AF2846C04705460028D0
S21440516054D0311A0D2905D90278437843EA0223F0
S214405170012BD9D00929EAD90A392A89130A43EAE0
S21440518002239BB2994243D303F10A021544C91A3B
S214405190DDE700283FF414AF00248023B3700023DB
S2144051A0F370B3710122F27133727372B372F37299
S2144051B0C0212970AAEB060A85F801A0AB70EA70F8
S2144051C02B716A71AB710422EA7193212972E02136
S2144051D06972AB72EA72264B1A7D2A735A7D6A73DD
S2144051E09A7DAA73DB7DEB73A91B103109B2214B64
S2144051F09847002C3FF4E4AE20461F4B9847DFE626
S2144052000020DEE60020DCE60020DAE60020D8E6D5
S2144052100020D6E60020D4E600293FF472AF2B7873
S21440522003F0C002C02A3FF437AF35B13BB1012985
S2144052307FF667AF2B46002245E70020C1E62B46A7
S2144052400022013306A90A44002102F8141C002B50
S214405250D8D0F119C91AAA46D5E600BFA5BF400066
S214405260ED544000C83F4100B5544000994D4000C1
S214405270D8000020FD4E4000799D4000454D40003E
S21440528008B5C369352B01D8002008BDA3F12A0113
S214405290806930F82A2F014B9847F5E79D4F40002C
S2144052A0C3692A2B01D800207047F0B587B08469BF
S2144052B0D4F81A2000922A3B312B2FD994F82C3060
S2144052C094F82D6046EA032616F4F04F26D194F85B
S2144052D0587094F8593043EA072700238DF8143065
S2144052E004F1530205A801AD04E000F8013D023A7E
S2144052F085420ED09378A3F14101D378413B43EAEF
S2144053000113DBB2202BF0D10178002908BF0B46F1
S214405310EBE716F4004F04D1202F09D0002007B049
S214405320F0BD00231A46694601A8344CA047F5E76D
S21440533001A8334B98470028F0D02A342046314BFA
S21440534098470546304B1B6873B90028E6D0C169BC
S21440535001F12A03C3613A312C4B98470546002891
S214405360DCD084692A3401E00028D7D08523A37096
S2144053700023E37023716371A3710122E2712372EB
S2144053806372A372E37284F82E30202184F82F10C3
S21440539084F8303084F8312084F8323084F8333062
S2144053A00E2284F83420102284F8352084F83630D3
S2144053B0062284F83720602284F8382084F8393072
S2144053C0134B5A69110E130203F47F0341EA02603D
S2144053D00343120A02F47F4213431A0E84F83A201B
S2144053E01A0C84F83B201B0A84F83C3084F83D10A5
S2144053F03E212846074B984790E700BF994D40000E
S214405400A5BF4000ED544000C83F4100B5544000A1
S214405410D8000020FD4E400038B5037813F0010F49
S2144054201ED0044613F0020F05D100F10C010430E3
S2144054300D4B9847B0B12569201D0C4B9847E56049
S2144054404DB123786FF341032370237843F0010373
S2144054502370012038BD237843F002032370F4E71D
S214405460002038BD002038BD99BA400055BA4000EB
S21440547008B5044B9847044B1B68834214BF002072
S214405480012008BD09BB40001C6D002010B500F18E
S2144054902A0441F28833994228BF19462046044BD5
S2144054A0984718B1C46180692A3010BD002010BDED
S2144054B0D19D400070B505460E4600213046094B4A
S2144054C09847044658B1C6616B6943612B8C038488
S2144054D06B8C4384EA69A9698069034B98472046E8
S2144054E070BD00BFD19D4000D9C3400028B110F028
S2144054F0030F04D150F8340C70470020704700204A
S2144055007047000008B5024B9847024B984708BDC5
S214405510ED544000799D4000F0B583B004460F46F8
S21440552016461D46002208214120334B9847334BF0
S214405530186000285AD0324B984701280AD0314884
S214405540314B98472D4C2068304B984700202060C0
S21440555003B0F0BDE278A3781B0443EA02632278E6
S2144055601343627843EA0223294C2360F978BA78D9
S214405570120442EA016239780A43797842EA012203
S2144055806260F078B178090441EA006130780143FE
S214405590707841EA0021A160E878A978090441EAD8
S2144055A0006128780143687841EA0021E16063EAB7
S2144055B002062661174D0FCC0FC52E60164B0022F3
S2144055C05A61089A1068186092889A80134B9847D8
S2144055D00128BDD1124B01930223009300234FF4C0
S2144055E0207210491048114CA047B1E71048064BAE
S2144055F098470020ACE700BF89AD40003C6D0020D6
S214405600ED9C4000D42D410051C34000F5B240000F
S214405610246D0020086D0020D800002071604000F6
S2144056201C6D0020CC2D4100695A400001B440005A
S2144056300C2E410098B110B40446104840692060D2
S21440564011B10F484068086012B10D498968116071
S21440565013B10B4AD2681A605DF8044B704711B11B
S21440566007484068086012B1054989681160002BF8
S214405670F4D0034AD2681A60704700BFD8000020B2
S214405680246D002038B504460D46184B1B682BB9D0
S21440569090F9003033B10025284638BD90F90030E7
S2144056A0052B15D0124B984701284FF0000314BF26
S2144056B02A461A4621460F4800680F4DA847054619
S2144056C00028E9D194F900100C480D4B9847E3E7C1
S2144056D00C4A137843F002031370064B18680A4BC3
S2144056E098470028DED00125D6E700BF206D002071
S2144056F0715440003C6D0020DDAD4000342F410029
S21440570051C34000486D0020D9B2400008B5002182
S2144057100448054B9847012814BF01220022034B3A
S2144057201A6008BD2C2F410085564000386D002079
S21440573000B583B08DF80000002101916846024B09
S214405740984703B05DF804FB8556400038B5012203
S214405750094B1A600020094B9847094C42F21075D5
S2144057602561201D074B9847E560237803F0FD032D
S21440577043F00103237038BD406D002071C14000E6
S214405780DC6C002055BA4000F0B5030A43EA00231B
S2144057909BB21846002701F0030411F0010E05D015
S2144057A03AB111F8015B65F30F27013A013C012C31
S2144057B053D922F003060C3E0E448E4254D90B4673
S2144057C000241D68401928BF01345D68401928BF71
S2144057D001349D68401928BF0134DD68401928BF50
S2144057E0013410339E42ECD8CB431E4426F00F06BD
S2144057F010363144030C13FA80F02044044602F07D
S2144058000E050D448D420CD90B4633F8020B04446A
S2144058109D42FAD8CB431D4425F00105023520466B
S214405820294412F0010F1CBF0B7863F30707384476
S214405830030C13FA80F0030C13FA80F0BEF1000F4D
S21440584004D003029BB2C0F3072018430302C0F300
S214405850072003F47F431843F0BD012AA9D931F845
S214405860020B1844023AA4E70024C3E72DE9F041AE
S21440587082B0212905D841F23424204602B0BDE842
S214405880F081837B03F00F039B0003F10E04A142DB
S21440589002D241F23424F0E7058A2C0A44EA052471
S2144058A0A4B2A14202D241F23424E6E7C47DA3F179
S2144058B0140500EB050E112C08D0062C28D0651ECA
S2144058C0EDB2012D2FD944F22134D6E703F1160567
